:020000040800F2
:1000000000800120B5020008490200084F020008E4
:10001000550200085B0200086102000800000000B1
:10002000000000000000000000000000670200085F
:100030007502000800000000830200082902000881
:100040000503000805030008050300080503000870
:100050000503000805030008050300080503000860
:100060000503000805030008050300080503000850
:100070000503000805030008050300080503000840
:100080000503000805030008050300080000000040
:100090000000000000000000000000000503000850
:1000A0000503000805030008050300080503000810
:1000B0000503000805030008050300080503000800
:1000C00005030008050300080503000805030008F0
:1000D00005030008050300080503000800000000F0
:1000E00005030008050300080503000800000000E0
:1000F00000000000000000000000000005030008F0
:1001000000000000050300080503000805030008BF
:1001100000000000000000000000000000000000DF
:10012000050300080503000805030008050300088F
:1001300005030008000000000000000000000000AF
:10014000000000000000000000000000050300089F
:10015000050300080503000805030008050300085F
:10016000050300080503000800000000000000006F
:10017000000000000000000000000000000000007F
:10018000000000000503000800000000000000005F
:04019000050300085B
:1001940010B5054C237833B9044B13B10448AFF3BD
:1001A40000800123237010BD000000200000000027
:1001B4005003000808B5034B1BB103490348AFF3D0
:1001C400008008BD00000000040000205003000867
:1001D40080B400AF72B600BF0E4B1B6B0D4A43F0E8
:1001E400010313630C4B1B680B4A23F44063136035
:1001F400094B1B68084A43F480631360074B084AA1
:100204005A60064B00229A60044B07221A6062B6B9
:1002140000BFFEE7003802400000024010E000E0AA
:10022400FF23F40080B400AF054B5B69044A83F0FC
:100234002003536100BFBD465DF8047B704700BFD7
:100244000000024080B400AFFEE780B400AFFEE7D8
:1002540080B400AFFEE780B400AFFEE780B400AF27
:10026400FEE780B400AF00BFBD465DF8047B704775
:1002740080B400AF00BFBD465DF8047B704780B416
:1002840000AF00BFBD465DF8047B704780B400AF8B
:10029400064BD3F88830054A43F47003C2F888301B
:1002A40000BFBD465DF8047B704700BF00ED00E071
:1002B400DFF834D00D480E490E4A002302E0D4582A
:1002C400C4500433C4188C42F9D30B4A0B4C00239A
:1002D40001E013600432A242FBD3FFF7D7FF00F022
:1002E40011F8FFF775FF704700800120000000201F
:1002F4000000002070030008000000201C00002003
:10030400FEE7000070B50D4D0D4C641BA4100026D3
:10031400A64209D10B4D0C4C00F018F8641BA41034
:100324000026A64205D170BD55F8043B9847013616
:10033400EEE755F8043B98470136F2E768030008F6
:1003440068030008680300086C030008F8B500BFE0
:10035400F8BC08BC9E467047F8B500BFF8BC08BCA2
:040364009E467047FA
:04036800B9010008CF
:04036C0095010008EF
:04000005080002B538
:00000001FF
