:020000040800F2
:1000000000800120B90200084102000847020008F0
:100010004D020008530200085902000800000000C9
:100020000000000000000000000000005F02000867
:100030006D020008000000007B0200088902000831
:100040000903000809030008090300080903000860
:100050000903000809030008090300080903000850
:100060000903000809030008090300080903000840
:100070000903000809030008090300080903000830
:100080000903000809030008090300080000000034
:10009000000000000000000000000000090300084C
:1000A0000903000809030008090300080903000800
:1000B00009030008090300080903000809030008F0
:1000C00009030008090300080903000809030008E0
:1000D00009030008090300080903000800000000E4
:1000E00009030008090300080903000800000000D4
:1000F00000000000000000000000000009030008EC
:1001000000000000090300080903000809030008B3
:1001100000000000000000000000000000000000DF
:10012000090300080903000809030008090300087F
:1001300009030008000000000000000000000000AB
:10014000000000000000000000000000090300089B
:10015000090300080903000809030008090300084F
:100160000903000809030008000000000000000067
:10017000000000000000000000000000000000007F
:10018000000000000903000800000000000000005B
:040190000903000857
:1001940010B5054C237833B9044B13B10448AFF3BD
:1001A40000800123237010BD040000200000000023
:1001B4007C03000808B5034B1BB103490348AFF3A4
:1001C400008008BD00000000080000207C03000837
:1001D40080B400AF164B1B6B154A43F00403136342
:1001E400134B1B6B124A43F001031363114B1B683F
:1001F400104A23F4406313600E4B1B680D4A43F40A
:10020400806313600C4B1B680B4A23F0406313603C
:10021400094B1B6903F40053002B04D0054B4FF426
:1002240000129A61F4E7034B20229A61F0E700BFC1
:1002340000380240000002400008024080B400AFD1
:10024400FEE780B400AFFEE780B400AFFEE780B401
:1002540000AFFEE780B400AFFEE780B400AF00BF9C
:10026400BD465DF8047B704780B400AF00BFBD4657
:100274005DF8047B704780B400AF00BFBD465DF8F5
:10028400047B704780B500AF00F03EF800BF80BD2E
:1002940080B400AF064BD3F88830054A43F47003AA
:1002A400C2F8883000BFBD465DF8047B704700BFCC
:1002B40000ED00E0DFF834D00D480E490E4A00236B
:1002C40002E0D458C4500433C4188C42F9D30B4A06
:1002D4000B4C002301E013600432A242FBD3FFF76E
:1002E400D7FF00F025F8FFF773FF70470080012067
:1002F40000000020040000209C03000804000020EB
:1003040024000020FEE7000080B400AF064B1B78F9
:100314001A46064B1B681344044A136000BFBD46CB
:100324005DF8047B704700BF00000020200000201F
:1003340070B50D4D0D4C641BA4100026A64209D1C6
:100344000B4D0C4C00F018F8641BA4100026A642B8
:1003540005D170BD55F8043B98470136EEE755F8D2
:10036400043B98470136F2E794030008940300081D
:100374009403000898030008F8B500BFF8BC08BC53
:100384009E467047F8B500BFF8BC08BC9E4670474F
:04039400B9010008A3
:0403980095010008C3
:04039C00010000005C
:04000005080002B934
:00000001FF
