:020000040800F2
:1000000000800120B1030008370300083D03000809
:1000100043030008490300084F03000800000000E4
:100020000000000000000000000000005503000870
:100030006303000800000000710300087F0300084C
:10004000010400080104000801040008010400087C
:10005000010400080104000801040008010400086C
:10006000010400080104000801040008010400085C
:10007000010400080104000801040008010400084C
:100080000104000801040008010400080000000049
:100090000000000000000000000000000104000853
:1000A000010400080104000801040008010400081C
:1000B000010400080104000801040008010400080C
:1000C00001040008010400080104000801040008FC
:1000D00001040008010400080104000800000000F9
:1000E000B10200080104000801040008000000003B
:1000F00000000000000000000000000001040008F3
:1001000000000000010400080104000801040008C8
:1001100000000000000000000000000000000000DF
:10012000010400080104000801040008010400089B
:1001300001040008000000000000000000000000B2
:1001400000000000000000000000000001040008A2
:10015000010400080104000801040008010400086B
:100160000104000801040008000000000000000075
:10017000000000000000000000000000000000007F
:100180000000000001040008000000000000000062
:04019000010400085E
:1001940010B5054C237833B9044B13B10448AFF3BD
:1001A40000800123237010BD040000200000000023
:1001B4007404000808B5034B1BB103490348AFF3AB
:1001C400008008BD0000000008000020740400083E
:1001D40080B483B000AF0346FB7197F90730002B5E
:1001E4000BDBFB7903F01F02074997F907305B0922
:1001F400012000FA02F241F8232000BF0C37BD466B
:100204005DF8047B704700BF00E100E080B500AFFB
:1002140072B600BF204B1B6B1F4A43F004031363E9
:100224001D4B1B6B1C4A43F0010313631A4B5B6C9D
:10023400194A43F480435364184B1B68174A23F448
:1002440040631360154B1B68144A43F480631360C6
:10025400134B1B68124A23F040631360114B5B6914
:10026400104A23F0F00353610E4B5B690D4A43F0CF
:10027400200353610C4B1B680B4A43F40053136077
:10028400094BDB68084A43F40053D3602820FFF786
:100294009FFF62B600BFFEE7003802400000024044
:1002A4000008024000380140003C014080B500AF26
:1002B4000F4B20229A61FA2000F01EF80C4B4FF4E9
:1002C40000129A61FA2000F017F8094B20229A6173
:1002D400FA2000F011F8064B4FF400129A61FA204C
:1002E40000F00AF8034B4FF400525A6100BF80BD7E
:1002F40000000240003C014080B485B000AF78604B
:100304000DE00023FB6002E0FB680133FB60FB6847
:1003140040F67A429342F7DD7B68013B7B607B6861
:10032400002BEEDC00BF00BF1437BD465DF8047B34
:10033400704780B400AFFEE780B400AFFEE780B43E
:1003440000AFFEE780B400AFFEE780B400AFFEE785
:1003540080B400AF00BFBD465DF8047B704780B435
:1003640000AF00BFBD465DF8047B704780B400AFAA
:1003740000BFBD465DF8047B704780B500AF00F058
:100384003FF800BF80BD000080B400AF064BD3F837
:100394008830054A43F47003C2F8883000BFBD4674
:1003A4005DF8047B704700BF00ED00E0DFF834D057
:1003B4000D480E490E4A002302E0D458C4500433B9
:1003C400C4188C42F9D30B4A0B4C002301E0136090
:1003D4000432A242FBD3FFF7D7FF00F025F8FFF762
:1003E40015FF704700800120000000200400002059
:1003F400940400080400002024000020FEE700000C
:1004040080B400AF064B1B781A46064B1B68134496
:10041400044A136000BFBD465DF8047B704700BF0B
:10042400000000202000002070B50D4D0D4C641B11
:10043400A4100026A64209D10B4D0C4C00F018F86C
:10044400641BA4100026A64205D170BD55F8043BD8
:1004540098470136EEE755F8043B98470136F2E732
:100464008C0400088C0400088C0400089004000824
:10047400F8B500BFF8BC08BC9E467047F8B500BF8D
:08048400F8BC08BC9E4670475D
:04048C00B9010008AA
:0404900095010008CA
:040494000100000063
:04000005080003B13B
:00000001FF
