:020000040800F2
:1000000000800120B1020008390200083F02000808
:10001000450200084B0200085102000800000000E1
:10002000000000000000000000000000570200086F
:100030006502000800000000730200088102000849
:100040000103000801030008010300080103000880
:100050000103000801030008010300080103000870
:100060000103000801030008010300080103000860
:100070000103000801030008010300080103000850
:10008000010300080103000801030008000000004C
:100090000000000000000000000000000103000854
:1000A0000103000801030008010300080103000820
:1000B0000103000801030008010300080103000810
:1000C0000103000801030008010300080103000800
:1000D00001030008010300080103000800000000FC
:1000E00001030008010300080103000800000000EC
:1000F00000000000000000000000000001030008F4
:1001000000000000010300080103000801030008CB
:1001100000000000000000000000000000000000DF
:10012000010300080103000801030008010300089F
:1001300001030008000000000000000000000000B3
:1001400000000000000000000000000001030008A3
:10015000010300080103000801030008010300086F
:100160000103000801030008000000000000000077
:10017000000000000000000000000000000000007F
:100180000000000001030008000000000000000063
:04019000010300085F
:1001940010B5054C237833B9044B13B10448AFF3BD
:1001A40000800123237010BD040000200000000023
:1001B4007403000808B5034B1BB103490348AFF3AC
:1001C400008008BD0000000008000020740300083F
:1001D40080B400AF134B1B6B124A43F0010313634B
:1001E400114B1B68104A23F4406313600E4B1B68C9
:1001F4000D4A43F4806313600C4B0D4A5A600B4B59
:1002040000229A60094B05221A60084B1B6803F40C
:100214008033002BF9D0044B5B69034A83F020033D
:100224005361F2E7003802400000024010E000E0B1
:10023400FFD3300080B400AFFEE780B400AFFEE728
:1002440080B400AFFEE780B400AFFEE780B400AF37
:10025400FEE780B400AF00BFBD465DF8047B704785
:1002640080B400AF00BFBD465DF8047B704780B426
:1002740000AF00BFBD465DF8047B704780B500AF9A
:1002840000F03EF800BF80BD80B400AF064BD3F849
:100294008830054A43F47003C2F8883000BFBD4675
:1002A4005DF8047B704700BF00ED00E0DFF834D058
:1002B4000D480E490E4A002302E0D458C4500433BA
:1002C400C4188C42F9D30B4A0B4C002301E0136091
:1002D4000432A242FBD3FFF7D7FF00F025F8FFF763
:1002E40077FF7047008001200000002004000020F8
:1002F400940300080400002024000020FEE700000E
:1003040080B400AF064B1B781A46064B1B68134497
:10031400044A136000BFBD465DF8047B704700BF0C
:10032400000000202000002070B50D4D0D4C641B12
:10033400A4100026A64209D10B4D0C4C00F018F86D
:10034400641BA4100026A64205D170BD55F8043BD9
:1003540098470136EEE755F8043B98470136F2E733
:100364008C0300088C0300088C0300089003000829
:10037400F8B500BFF8BC08BC9E467047F8B500BF8E
:08038400F8BC08BC9E4670475E
:04038C00B9010008AB
:0403900095010008CB
:040394000100000064
:04000005080002B13C
:00000001FF
