:020000040800F2
:1000000000800120DD020008650200086B02000884
:1000100071020008770200087D020008000000005D
:100020000000000000000000000000008302000843
:1000300091020008000000009F020008AD020008C5
:100040002D0300082D0300082D0300082D030008D0
:100050002D0300082D0300082D0300082D030008C0
:100060002D0300082D0300082D0300082D030008B0
:100070002D0300082D0300082D0300082D030008A0
:100080002D0300082D0300082D03000800000000C8
:100090000000000000000000000000002D03000828
:1000A0002D0300082D0300082D0300082D03000870
:1000B0002D0300082D0300082D0300082D03000860
:1000C0002D0300082D0300082D0300082D03000850
:1000D0002D0300082D0300082D0300080000000078
:1000E0002D0300082D0300082D0300080000000068
:1000F0000000000000000000000000002D030008C8
:10010000000000002D0300082D0300082D03000847
:1001100000000000000000000000000000000000DF
:100120002D0300082D0300082D0300082D030008EF
:100130002D03000800000000000000000000000087
:100140000000000000000000000000002D03000877
:100150002D0300082D0300082D0300082D030008BF
:100160002D0300082D03000800000000000000001F
:10017000000000000000000000000000000000007F
:10018000000000002D030008000000000000000037
:040190002D03000833
:1001940010B5054C237833B9044B13B10448AFF3BD
:1001A40000800123237010BD040000200000000023
:1001B400A003000808B5034B1BB103490348AFF380
:1001C400008008BD0000000008000020A003000813
:1001D40080B400AF204B1B6B1F4A43F00103136331
:1001E4001E4B1B681D4A23F4406313601B4B1B68A2
:1001F4001A4A43F480631360174B1B6C164A43F08E
:10020400010313644FF0804340F23F629A624FF05F
:10021400804342F20F72DA624FF0804300225A6246
:100224004FF0804301221A6000BF4FF080431B69E6
:1002340003F00103002BF8D04FF080431B694FF00B
:10024400804223F001031361044B5B69034A83F08A
:1002540020035361E8E700BF003802400000024079
:1002640080B400AFFEE780B400AFFEE780B400AF17
:10027400FEE780B400AFFEE780B400AFFEE780B4D1
:1002840000AF00BFBD465DF8047B704780B400AF8B
:1002940000BFBD465DF8047B704780B400AF00BF6B
:1002A400BD465DF8047B704780B500AF00F03EF8B2
:1002B40000BF80BD80B400AF064BD3F88830054A38
:1002C40043F47003C2F8883000BFBD465DF8047B78
:1002D400704700BF00ED00E0DFF834D00D480E4950
:1002E4000E4A002302E0D458C4500433C4188C428C
:1002F400F9D30B4A0B4C002301E013600432A242F1
:10030400FBD3FFF7D7FF00F025F8FFF761FF704735
:10031400008001200000002004000020C003000829
:100324000400002024000020FEE7000080B400AF99
:10033400064B1B781A46064B1B681344044A136089
:1003440000BFBD465DF8047B704700BF000000207D
:100354002000002070B50D4D0D4C641BA410002628
:10036400A64209D10B4D0C4C00F018F8641BA410E4
:100374000026A64205D170BD55F8043B98470136C6
:10038400EEE755F8043B98470136F2E7B803000856
:10039400B8030008B8030008BC030008F8B500BFA0
:1003A400F8BC08BC9E467047F8B500BFF8BC08BC52
:0403B4009E467047AA
:0403B800B90100087F
:0403BC00950100089F
:0403C0000100000038
:04000005080002DD10
:00000001FF
