:020000040800F2
:1000000000800120ED050008070500080D05000827
:1000100013050008190500081F050008000000006E
:10002000000000000000000000000000250500089E
:100030003305000800000000410500084F050008D6
:100040003D0600083D0600083D0600083D06000884
:100050003D0600083D0600083D0600083D06000874
:100060003D0600083D0600083D0600083D06000864
:100070003D0600083D0600083D0600083D06000854
:100080003D0600083D0600083D060008000000008F
:100090000000000000000000000000003D06000815
:1000A0003D0600083D0600083D0600083D06000824
:1000B0003D0600083D0600083D0600083D06000814
:1000C0003D0600083D0600083D0600083D06000804
:1000D0003D0600083D0600083D060008000000003F
:1000E0003D0600083D0600083D060008000000002F
:1000F0000000000000000000000000003D060008B5
:10010000000000003D0600083D0600083D0600080E
:1001100000000000000000000000000000000000DF
:100120003D0600083D0600083D0600083D060008A3
:100130003D06000800000000000000000000000074
:100140000000000000000000000000003D06000864
:100150003D0600083D0600083D0600083D06000873
:100160003D0600083D0600080000000000000000F9
:10017000000000000000000000000000000000007F
:10018000000000003D060008000000000000000024
:040190003D06000820
:1001A00010B5054C237833B9044B13B10448AFF3B1
:1001B00000800123237010BD6800002000000000B3
:1001C000180F000808B5034B1BB103490348AFF3F0
:1001D000008008BD000000006C000020180F00081F
:1001E00001F0FF01102A2BDB10F0070F08D010F8E8
:1001F000013B013A8B422DD010F0070F42B3F6D1EC
:10020000F0B441EA012141EA014122F007047FF004
:1002100000070023F0E80256083C85EA010586EA5B
:10022000010685FA47F5A3FA87F586FA47F6A5FA97
:1002300087F68EB9EED1F0BC01F0FF0102F00702A3
:1002400032B110F8013B013A83EA010313B1F8D14E
:100250000020704701387047002D06BF354603382F
:10026000073815F0010F07D1013015F4807F02BF68
:10027000013015F4C03F0130F0BC0138704700BFB9
:1002800080B582B000AF00F01DF800F093F80B4885
:1002900000F0F0F84123FB7109E0FB79184600F00B
:1002A0005FF8642000F012F9FB790133FB71FB79F0
:1002B0005A2BF2D9024800F0DDF8EBE7300F0008C6
:1002C000440F000880B400AF224B1B6B214A43F05F
:1002D000010313631F4B5B6C1E4A43F4805353644A
:1002E0001D4B1B681C4A23F44C4313601A4B1B68BC
:1002F000194A43F408431360174B1B6A164A23F04C
:10030000704323F470031362134B1B6A124A43F0C9
:10031000A04343F4A00313620F4B1B680E4A23F45F
:10032000407313600C4B1B680B4A43F480731360DB
:100330000A4B4FF447721A60084B00225A60074B71
:100340001B68064A43F04003136000BFBD465DF8DA
:10035000047B70470038024000000240003001403A
:1003600080B582B000AF0346FB71104B4FF4801292
:100370009A6100BF0E4B9B6803F00203002BF9D07B
:100380000B4AFB79D36000BF094B9B6803F08003E5
:10039000002BF9D1054B10229A61FB79184600F029
:1003A0007FF800BF0837BD4680BD00BF0000024097
:1003B0000030014080B400AF1F4B1B6B1E4A43F05E
:1003C000010313631C4B1B6C1B4A43F4003313647F
:1003D0001A4B1B6A194A43F4E0631362174B1B6AFA
:1003E000164A43F4E0431362144B1B68134A43F06C
:1003F00080031360114B1B68104A43F02003136005
:100400000F4B0022DA600E4BDB680D4A43F40053B9
:10041000D3600B4B40F283629A60094B0C22DA6086
:10042000074B00221A61064B00225A6100BFBD46ED
:100430005DF8047B704700BF0038024000000240B6
:100440000044004080B483B000AF786000BF084B28
:100450001B6803F08003002BF9D0054A7B685360CA
:100460007B6818460C37BD465DF8047B704700BFBB
:100470000044004080B582B000AF786006E07B6841
:100480005A1C7A601B781846FFF7DCFF7B681B78E4
:10049000002BF4D100BF00BF0837BD4680BD00006F
:1004A00080B586B000AF786007F10C037A68064922
:1004B000184600F003F907F10C031846FFF7DAFFBE
:1004C00000BF1837BD4680BD480F000880B485B016
:1004D00000AF78600DE00023FB6002E0FB680133B1
:1004E000FB60FB6840F67A429342F7DD7B68013B94
:1004F0007B607B68002BEEDC00BF00BF1437BD467D
:100500005DF8047B704780B400AFFEE780B400AFB5
:10051000FEE780B400AFFEE780B400AFFEE780B432
:1005200000AFFEE780B400AF00BFBD465DF8047BBE
:10053000704780B400AF00BFBD465DF8047B7047D4
:1005400080B400AF00BFBD465DF8047B704780B546
:1005500000AF00F075F800BF80BD000080B586B028
:1005600000AF7860144A154BD31A7B617B693B61FD
:10057000134B1B68002B02D1114B124A1A60104B0F
:100580001A687B6813443A699A4207D200F06CF803
:1005900003460C221A604FF0FF3309E0084B1B683A
:1005A000FB60074B1A687B681344054A1360FB68BD
:1005B00018461837BD4680BD0080012000040000A9
:1005C00084000020A800002080B400AF064BD3F8C0
:1005D0008830054A43F47003C2F8883000BFBD4636
:1005E0005DF8047B704700BF00ED00E0DFF834D019
:1005F0000D480E490E4A002302E0D458C45004337B
:10060000C4188C42F9D30B4A0B4C002301E0136051
:100610000432A242FBD3FFF7D7FF00F02BF8FFF71D
:100620002FFE70470080012000000020680000209D
:10063000880F000868000020A4000020FEE70000EA
:1006400080B400AF064B1B781A46064B1B68134458
:10065000044A136000BFBD465DF8047B704700BFCD
:100660000000002090000020014B1868704700BF78
:100670000400002070B50D4D0D4C641BA410002625
:10068000A64209D10B4D0C4C00F046FC641BA41093
:100690000026A64205D170BD55F8043B98470136A7
:1006A000EEE755F8043B98470136F2E7800F000863
:1006B000800F0008800F0008840F00080EB400B5FA
:1006C0009CB01DAB029006906FF000410948079165
:1006D0000491094953F8042B05910068019302A97C
:1006E00000F068F8029B00221A701CB05DF804EB61
:1006F00003B07047040000200802FFFF2DE9F04717
:100700008E689E4282460C4690461F4638D88A899B
:1007100012F4906F32D025680969A5EB010965696B
:1007200005EB450505EBD57501334B446D109D4236
:1007300038BF1D46530531D5294600F047FB064614
:1007400050B90C23CAF80030A38943F04003A381B9
:100750004FF0FF30BDE8F08721694A4600F0BEFA4D
:10076000A38923F4906343F08003A381266165612C
:100770004E44A5EB09052660A5603E46BE4200D961
:100780003E4632462068414600F0B6FAA368226829
:100790009B1B3244A36022600020DBE72A4600F066
:1007A0006FFB06460028E1D12169504600F0BEFAF1
:1007B000C7E700002DE9F04F98468B891B069DB0D6
:1007C00007460D4614460ED50B6963B9402100F06B
:1007D000FDFA2860286120B90C233B604FF0FF3000
:1007E000D1E040236B610023099320238DF8293049
:1007F000CDF80C803023DFF8A8818DF82A304FF037
:10080000010923469A4613F8012B0AB1252AF9D18A
:10081000BAEB040B0BD05B46224629463846FFF75D
:100820006DFF013000F0AA80099A5A4409929AF8A3
:100830000030002B00F0A28000234FF0FF32CDE902
:1008400005230AF1010A049307938DF853301A9394
:100850005446052214F8011B5148FFF7C1FC049AC5
:10086000D8B9D00644BF20238DF85330110744BFB8
:100870002B238DF853309AF800302A2B15D0079A85
:10088000544600204FF00A0C214611F8013B303B42
:10089000092B4ED9B0B1079214E0A0EB080309FA76
:1008A00003F313430493A246D2E7039B191D1B686D
:1008B0000391002BBBBF5B4242F0020207930793F8
:1008C000B8BF049223782E2B0CD163782A2B35D114
:1008D000039B1A1D1B680392002BB8BF4FF0FF3318
:1008E00002340593DFF8C8A0217803225046FFF7B1
:1008F00077FC40B14023A0EB0A0003FA00F0049B10
:1009000003430134049314F8011B26488DF8281082
:100910000622FFF765FC002838D0234B1BBB039B46
:10092000073323F0070308330393099B33440993E8
:1009300067E70CFB02320C460120A5E700230134D7
:10094000059319464FF00A0C204610F8012B303A57
:10095000092A03D9002BC5D00591C3E70CFB01215F
:1009600004460123F0E703AB00932A460F4B04A98A
:100970003846AFF30080421C0646D6D1AB895B06F1
:100980003FF52CAF09981DB0BDE8F08F03AB009385
:100990002A46064B04A9384600F07AF8EBE700BF78
:1009A0004C0F0008560F000800000000FD0600086C
:1009B000520F00082DE9F047164699468A680B69E0
:1009C000DDF820809342B8BF1346336091F843208E
:1009D00007460C460AB1013333602368990642BFCB
:1009E000336802333360256815F0060506D104F13B
:1009F000190AE36832689B1AAB4226DC94F843205C
:100A0000131E226818BF012392062BD404F143025F
:100A100049463846C04701301ED02368E568326831
:100A200003F00603042B08BFAD1AA36822690CBFAC
:100A300025EAE57500259342C4BF9B1AED180026F0
:100A40001A34B5421AD1002008E001235246494623
:100A50003846C047013003D14FF0FF30BDE8F08782
:100A60000135C6E7E1185A1C302081F843002244C2
:100A700094F8451082F843100233C7E70123224659
:100A800049463846C0470130E6D00136D9E7000074
:100A90002DE9FF470C469146277E0C99782F80461A
:100AA0009A4604F1430207D8622F0AD8002F00F0BB
:100AB000D880582F00F0A38004F1420684F84270D9
:100AC0003AE0A7F16303152BF6D801A050F823F004
:100AD000290B00083D0B0008B90A0008B90A0008F4
:100AE000B90A0008B90A00083D0B0008B90A000855
:100AF000B90A0008B90A0008B90A0008490C000838
:100B00006D0B00082B0C0008B90A0008B90A000890
:100B10006B0C0008B90A00086D0B0008B90A000840
:100B2000B90A0008330C00080B681A1D1B680A601C
:100B300004F1420684F842300123A3E025680868E6
:100B40002E0600F104030AD505680B60002D03DAB8
:100B50002D236D4284F843305E480A2319E015F0D6
:100B6000400F05680B6018BF2DB2EFE70B682568D2
:100B7000181D0860280601D51D6802E06906FBD52E
:100B80001D8854486F2F0CBF08230A23002184F8C6
:100B900043106668A660002EA2BF216821F0040100
:100BA00021600DB9002E4DD01646B5FBF3F103FBC5
:100BB0001157C75D06F8017D2F46BB420D46F4D99B
:100BC000082B0BD12368DF0708D523696168994298
:100BD000DEBF302306F8013C06F1FF36921B22618E
:100BE000CDF800A04B4603AA21464046FFF7E2FE9F
:100BF00001304CD14FF0FF3004B0BDE8F0873548EC
:100C000084F8457023680E681F0656F8045B0E6072
:100C100014D5D90744BF43F0200323601DB92368CE
:100C200023F0200323601023B0E7236843F0200360
:100C300023607823284884F84530E3E75E0648BF00
:100C4000ADB2E6E71646BBE70B68266860691D1D76
:100C50000D6035061B6801D5186002E07106FBD5F2
:100C60001880002323611646BAE70B681A1D0A6034
:100C70001E68626800213046FFF7B2FA08B1801B97
:100C8000606063682361002384F84330A8E7236928
:100C9000324649464046D0470130ABD023689B07D7
:100CA00013D4E068039B9842B8BF1846A4E7012319
:100CB000324649464046D04701309BD00135E36873
:100CC00003995B1AAB42F2DCEBE7002504F119064D
:100CD000F5E700BF5D0F00086E0F00080A4491425F
:100CE00000F1FF3300D1704710B511F8014B03F844
:100CF000014F9142F9D110BD884210B501EB0204B9
:100D000002D98442234607D8431EA14208D011F8D5
:100D1000012B03F8012FF8E7024401468A4200D173
:100D200010BD13F8014D02F8014DF7E737B5002962
:100D300048D051F8043C0190002BA1F10404B8BF45
:100D4000E41800F0D3F8204A01981368154633B927
:100D50006360146003B0BDE8304000F0CDB8A3423A
:100D60000BD921686218934204BF1A685B686360FC
:100D700004BF521822602C60ECE71A465B680BB186
:100D8000A342FAD911685518A5420BD12468214411
:100D90005418A3421160DDD11C685B685360214484
:100DA0001160D7E702D90C230360D3E725686119E6
:100DB0008B4204BF19685B68636004BF49192160F6
:100DC0005460C7E703B030BD88000020F8B5CD1CE3
:100DD00025F0030508350C2D38BF0C25002D0646DF
:100DE00001DBA94203D90C2333600020F8BD00F0D9
:100DF0007DF821490A6814469CB9204F3B6823B905
:100E00002146304600F062F838602946304600F04E
:100E10005DF8431C23D10C233360304600F06CF89E
:100E2000E3E723685B1B17D40B2B03D923601C4417
:100E3000256004E06368A2420CBF0B60536030463B
:100E400000F05AF804F10B00231D20F00700C21A2D
:100E5000CCD01B1AA350C9E722466468CCE7C41C57
:100E600024F00304A042E3D0211A304600F02EF80B
:100E70000130DDD1CFE700BF880000208C000020CA
:100E8000F8B5074614460E4621B9BDE8F8401146AC
:100E9000FFF79CBF22B9FFF749FF25462846F8BD5A
:100EA00000F030F8A0420FD221463846FFF78EFFFF
:100EB00005460028F2D031462246FFF70FFF3146A3
:100EC0003846FFF733FFE9E73546E7E738B5064D23
:100ED0000023044608462B60FFF740FB431C02D169
:100EE0002B6803B1236038BD94000020014800F056
:100EF00011B800BF9C000020014800F00CB800BFF2
:100F00009C00002051F8043C181F002BBCBF0B585C
:100F1000C018704770477047F8B500BFF8BC08BCF0
:100F20009E467047F8B500BFF8BC08BC9E467047A7
:100F300077656C636F6D6520746F205350490D0A9F
:100F4000000000000D0A000025632000232D302B37
:100F50002000686C4C0065666745464700303132BA
:100F60003334353637383941424344454600303111
:100F70003233343536373839616263646566000070
:040F8000C50100089F
:040F8400A1010008BF
:100F88000100000008000020000000000000000030
:100F98000000000000000000000000000000000049
:100FA8000000000000000000000000000000000039
:100FB8000000000000000000000000000000000029
:100FC8000000000000000000000000000000000019
:100FD8000000000000000000000000000000000009
:080FE800000000000000000001
:04000005080005EDFD
:00000001FF
