:020000040800F2
:1000000080040020AD0100084F16000865150008A7
:100010004D160008B9070008E916000800000000A6
:10002000000000000000000000000000531600085F
:10003000BB07000800000000511600085516000814
:10004000C7010008C7010008C7010008C701000870
:10005000C7010008C7010008C7010008C701000860
:10006000C7010008C7010008C7010008C701000850
:10007000C7010008C7010008C7010008C701000840
:10008000C7010008C701000885060008000000003D
:10009000000000000000000000000000C701000890
:1000A000C7010008C7010008C7010008C701000810
:1000B000C7010008C7010008C7010008C701000800
:1000C000C7010008C7010008C7010008C7010008F0
:1000D000C7010008C7010008C701000800000000B0
:1000E000C7010008C7010008C701000800000000A0
:1000F000000000000000000000000000C701000830
:1001000000000000C7010008C7010008C70100087F
:1001100000000000000000000000000000000000DF
:10012000C7010008C7010008C7010008C70100088F
:10013000C7010008000000000000000000000000EF
:10014000000000000000000000000000C7010008DF
:10015000C7010008C7010008C7010008C70100085F
:10016000C7010008C70100080000000000000000EF
:10017000000000000000000000000000000000007F
:1001800000000000C701000800000000000000009F
:10019000C7010008DFF810D000F062FA00480047FD
:1001A00055190008AFF300808004002006488047FE
:1001B00006480047FEE7FEE7FEE7FEE7FEE7FEE74C
:1001C000FEE7FEE7FEE7FEE7D91600089501000806
:1001D0002DE9F05F0546002092469B46884606467C
:1001E000814640241BE0284641464746224600F00F
:1001F00080F953465A46C01A914110D31146184609
:10020000224600F067F92D1A67EB01084F46224697
:100210000120002100F05EF917EB00094E41201E7D
:10022000A4F10104DFDC484631462A464346BDE8D6
:10023000F09FD2B201E000F8012B491EFBD27047BB
:100240000022F6E710B513460A4604461946FFF7A2
:10025000F0FF204610BD2DE9FE4F804681EA0300E5
:10026000C00F0C46009021F0004123F00045B8EB90
:100270000200A94105D24046214690461C460B4645
:10028000024623F00040104347D0270DC7F30A0071
:10029000C3F30A510290401A019040286BDAC3F36D
:1002A000130040F4801B0098924620B10023D2EB4B
:1002B000030A63EB0B0B01985946C0F1400250460C
:1002C00000F008F906460D4650465946019A00F0DE
:1002D00020F910EB08006141002487EA115284EAFA
:1002E000E7731A4340D0009A62B3019A012A4FEA99
:1002F000075215DC001B61EB02014FF0004202EADD
:100300000752CDE90042001C41F5801132462B46D0
:1003100000F057F903B0BDE8F08F40462146F9E7F9
:10032000001B61EB0201001C41F5801300185B41CA
:100330002018A2F5001747EB030140EAD570B61963
:100340006D4111E06D084FEA360645EAC0754FEA87
:100350000752001B61EB0201001C41F580114908A6
:100360004FEA30000019514132462B4603B0BDE838
:10037000F04F00F017B90098012240000023D0EBA5
:10038000020263EBE073009821464FEAE074B8EB99
:10039000000061EB0401E9E783F000435BE781F0D3
:1003A000004158E72DE9F04D81EA030404F0004BC9
:1003B00021F0004514464FF0000A23F0004150EAB6
:1003C000050220D054EA01021DD0C5F30A570246A7
:1003D000C5F31303C1F31300C1F30A5640F48015AB
:1003E00043F48013A7EB0608101BD64608F2FD382D
:1003F00073EB050002D308F1010801E092185B419C
:10040000B8F1000F03DA00200146BDE8F08D0020AE
:100410004FF48011064684460EE0171B73EB050768
:1004200005D3121B63EB050306434CEA010C490894
:100430004FEA300092185B4150EA0107EDD152EAD1
:10044000030012D082EA040083EA0501084305D0C4
:10045000101BAB4106D20122002306E000224FF020
:10046000004302E06FF0010253101AEB06004CEB60
:10047000085110EB0A0041EB0B01BDE8F04D00F014
:1004800091B80EB540F2334102910021CDE900113F
:100490000A460B4600F095F803B000BD01F000439A
:1004A00030B421F0004150EA010206D00A0DA2F555
:1004B0006072C1F31301002A02DC30BC00207047D7
:1004C000440F44EAC104C100E01830BC00EBC25044
:1004D00000F031B8202A04DB203A00FA02F10020B3
:1004E00070479140C2F1200320FA03F31943904072
:1004F0007047202A04DB203A21FA02F000217047DD
:1005000021FA02F3D040C2F120029140084319467B
:100510007047202A06DBCB17203A41FA02F043EA63
:10052000E07306E041FA02F3D040C2F120029140AC
:100530000843194670470029A8BF7047401C49006E
:1005400008BF20F00100704710B4B0FA80FC00FA38
:100550000CF050EA010404BF10BC704749B1CCF163
:10056000200421FA04F411FA0CF118BF01212143EF
:100570000843A3EB0C01CB1D4FEA00614FEA1020AA
:1005800042BF002010BC704700EBC350104400294C
:10059000A4BF10BC7047401C490008BF20F00100F8
:1005A00010BC704710B5141E73F1000408DA401C2B
:1005B00041F1000192185B411A4301D120F0010082
:1005C00010BD2DE9F04D92469B4611B1B1FA81F272
:1005D00002E0B0FA80F220329046FFF77BFF04463B
:1005E0000F4640EA0A0041EA0B0153465A460843C7
:1005F00013D0114653EA010019D0C8F14002504609
:10060000FFF777FF05460E46504659464246FFF72C
:1006100061FF084305D0012004E020463946BDE8CB
:10062000F08D0020054346EAE0762C4337430A98D4
:100630006305E40AA0EB08000022FD0A44EA4754DF
:100640000A3002D500200146E9E701051019694189
:10065000DDE9084500196941BDE8F04DA2E7000059
:10066000064C074D06E0E06840F0010394E80700FF
:1006700098471034AC42F6D3FFF790FDAC19000850
:10068000CC190008014800F0D1B900002400002076
:10069000464910B54A6822F440324A604A684368C5
:1006A0001A434A6001684A6822F480724A6001680D
:1006B0004A68036942EA03224A6001684A6822F0F4
:1006C00040724A6001684A6883681A434A60016858
:1006D0008A6822F400628A6001688A68C3681A43E3
:1006E0008A60816A6FF07062D14201688A6822F084
:1006F00070628A6001688A680CD0836A1A438A60D3
:1007000001688A6822F040528A6001688A68C36A78
:100710001A4301E022F040528A6001688A6822F0A0
:1007200002028A6001688A68037E42EA43028A60A4
:1007300090F82010002901684A680FD042F4006246
:100740004A6001684A6822F460424A6001684A6867
:10075000174C436A04EB43331A4301E022F400626E
:100760004A600168CA6A22F47002CA620168CA6AF1
:10077000838B104C04EB03531A43CA6201688A68E6
:1007800022F400728A6001688A6890F8303042EA88
:1007900043228A6001688A6822F480628A60016864
:1007A0008A68406942EA8020886010BD00230140C9
:1007B00000E0FFFF0000F0FFFEE770477047000019
:1007C00078B50024009490F83C20012A19D0012229
:1007D00080F83C200A6807230568092A13D9EE68C7
:1007E0000A3A02EB420293409E43EE600B788A681D
:1007F0000A3B03EB43039A400368DD682A43DA604F
:1008000010E0022078BD2E6902EB420293409E4325
:100810002E610B788A6803EB43039A4003681D69D5
:100820002A431A614A681F23072A13D205686E6B90
:10083000521E02EB820293409E436E630B790A883C
:100840005B1E92B203EB83039A4003685D6B2A43FD
:100850005A6327E005680D2A12D22E6BD21F02EBD5
:10086000820293409E432E630B790A88DB1F92B26B
:1008700003EB83039A4003681D6B2A431A6311E05C
:10088000EE6A0D3A02EB820293409E43EE620B79D0
:100890000A880D3B92B203EB83039A400368DD6A3A
:1008A0002A43DA62164B0568144A9D4206D10D6848
:1008B000122D03D1556845F48005556005689D42A9
:1008C00018D10B68102B01D0112B13D1536843F4AE
:1008D00000035360096810290CD10A490A4A0968C3
:1008E000B1FBF2F101EB8101490000E0491E0091EA
:1008F0000029FBD180F83C40002078BD0023014056
:10090000002001402000002040420F0010B5374871
:1009100000F089F836498C1F2278012A21F812004C
:1009200057D1088840F6B8325043000B60804888A1
:1009300000215043000BA080084600F045FF2DA089
:1009400000F0C8FF294901224831608800F0ECFE20
:100950000021052000F038FF2448483000F0BAFF9D
:100960000121002000F030FF24A000F0B3FF1F4958
:1009700000224831A08800F0D7FE0321052000F0B6
:1009800023FF1A48483000F0A5FF6088FFF779FD83
:100990009FED1C1B53EC112BFFF704FDFFF77EFDB1
:1009A000E060A088FFF76DFD9FED181B53EC112B45
:1009B000FFF7F2FC9FED171B53EC112BFFF7F2FC36
:1009C0009FED161B53EC112BFFF745FCFFF766FD5F
:1009D00020612078401CC0B22070012801D900207D
:1009E0002070BDE81040014800F022B9240000202A
:1009F0000600002074656D703D000000766F757410
:100A00003D00000000000000000024400000000045
:100A100000C087400000000000000440000000000B
:100A20000000394070470068C06C704770B50446DC
:100A3000006801684268C1F34001C2F3401251B33B
:100A40004AB3216CC90603D4216C41F400712164BE
:100A5000816811F0405F17D1217EA9B9C16A11F4F4
:100A6000700F02D0816849050ED4416821F0200141
:100A70004160206C20F480702064206CC00403D49A
:100A8000206C40F0010020642046FFF73FFF216802
:100A90006FF012000860206801684268C1F38001AD
:100AA000C2F3C01289B382B3216CC90603D4216C8E
:100AB00041F400512164816811F4401F1ED1816B03
:100AC00011F4401F02D08168490517D441684905D7
:100AD00014D4816811F0405F10D1217E71B9416852
:100AE00021F080014160206C20F480502064206C53
:100AF000C00503D4206C40F0010020642046FFF7BD
:100B00005DFE21686FF00C00086020680168426893
:100B100011F0010FC2F380120ED06AB10068C00755
:100B20000AD0206C40F480302064204600F046F863
:100B300021686FF001000860206801684268C1F315
:100B40004011C2F3806200290DD0002A0BD0616CE5
:100B500041F0020161646FF0200505602046FFF757
:100B600061FF2068056070BD70B504004FF000059E
:100B700003D0206C002610B107E0012070BD204694
:100B800000F01EF8666484F83C60206CC00610D447
:100B9000206C20F4885040F0020020642046FFF7CB
:100BA00077FD6664206C20F0020040F001002064B4
:100BB00000E0012584F83C60284670BD70470000C5
:100BC00010B586B0044614216846FFF739FB154975
:100BD0002068884224D114480021026842F48072BF
:100BE0000260006800F4807005900F4814380268B5
:100BF00042F001020260006800F00100059002204E
:100C000000900320CDE901016946084800F07EF814
:100C100000221146122000F0DDF9122000F0CCF97C
:100C200006B010BD002001404438024000000240E0
:100C300018B50021009190F83C20012A07D001222C
:100C400080F83C2002689368DB0702D011E00220A4
:100C500018BD936843F001039360274A274B12683D
:100C6000B2FBF3F202EB420200E0521E0092002AB5
:100C7000FBD102689368DB0733D0036C40F2016458
:100C8000A34343F48073036453685B0505D5036C89
:100C900023F4005343F480530364036CDB0404D552
:100CA000436C23F00603436400E0416480F83C1089
:100CB000134B6FF02201116001684A68114C224306
:100CC0004A6059680068C90602D00F49884210D1AD
:100CD000816811F0405F0CD1816841F080418160F2
:100CE00007E0016C41F010010164416C41F0010129
:100CF0004164002018BD00002000002040420F0089
:100D00000023014020000004002001402DE9F84F9D
:100D1000DFF8B8A1002201240AF1040B03254FF0EB
:100D20000F090BF1040E00BF0B6804FA02F6334002
:100D3000B34273D10F7907F00307012F01D0022FBF
:100D400016D187684FEA420805FA08FC27EA0C0723
:100D5000D1F80CC00CFA08FC4CEA070CC0F808C02B
:100D60004768B7430E79C6F3001696403E43466087
:100D70000E79F643B6070DD0C768560005FA06FC93
:100D800027EA0C07D1F808C00CFA06FC4CEA070C5D
:100D9000C0F80CC00E7906F00306022E10D1D6085A
:100DA00000EB8608D8F8206057074FEAD76C09FA9D
:100DB0000CF7BE430F6907FA0CF73743C8F82070E9
:100DC00006684FEA420C05FA0CF7BE430F7907F0AC
:100DD000030707FA0CF7374307604E6816F4403FE5
:100DE0006DD03B4E376847F480473760366822F055
:100DF000030706F480460096364E07EB060CDCF837
:100E0000086897073F0F09FA07F826EA0806DFF88F
:100E1000C880404503D14FF000081EE04FE0DFF8E6
:100E2000BC80404502D14FF0010816E0DFF8B080E9
:100E3000404502D14FF002080FE0DFF8A88040459E
:100E400002D14FF0030808E0DFF89C80404502D152
:100E50004FF0040801E04FF0070808FA07F848EAE5
:100E60000608CCF80888DAF800605746D1F804C0C4
:100E70009E435FEACC3C00D51E433E60DBF8006039
:100E80005F46D1F804C09E435FEA8C3C00D51E4308
:100E90003E60DEF800607746D1F804C09E435FEA0A
:100EA000CC2C00D51E433E60084F0C373E68D1F86D
:100EB00004C09E435FEA8C2C00D51E433E60521C4A
:100EC000102AFFF431AFBDE8F88F0000003C01406C
:100ED000443802400030014000000240000402405B
:100EE00000080240000C0240001002400AB181617B
:100EF00070470904FBE70000014880687047000064
:100F00001400002002488168027811448160704713
:100F1000140000200B4810B5016841F40071016015
:100F2000016841F480610160016841F480710160F1
:100F3000032000F06FF8002000F006F800F024F81D
:100F4000002010BD003C024070B50D4D04464FF42A
:100F50007A712878B1FBF0F00A490968B1FBF0F02A
:100F600000F0ECFA48B9102C07D200222146501E9E
:100F700000F030F800206C6070BD012070BD0000F2
:100F800014000020200000200A4808B5016841F440
:100F900080410160006800F4804000900548001F17
:100FA000016841F080510160006800F080500090BD
:100FB00008BD000044380240002809DB00F01F0291
:100FC000012191404009800000F1E020C0F80011AB
:100FD00070470000F0B40E4B1B680C46C3F30223AD
:100FE000C3F10705042D00D90425191D072901D2D5
:100FF000002300E0DB1E012606FA05F1491E214010
:1010000099409E40761E16403143F0BC00F06DBB07
:101010000CED00E0064900F0070208684FF6FF03F8
:10102000184040EA0220034A10430860704700005D
:101030000CED00E00000FA052DE9F0470E46050032
:1010400065D0DFF81481D8F80000F7B200F007008F
:10105000B04207D288F80070D8F8000000F007000E
:10106000B04254D128683D4C810712D5400703D5C2
:10107000206840F4E05020602878000703D52068FD
:1010800040F4604020602068A96820F0F000084328
:1010900020602878C0072DD03049686808390128B9
:1010A00012D0022813D0032811D00968890700291B
:1010B0002DDA216821F0030101432160FFF71CFFB5
:1010C000814641F2883A0EE009688903EFE7096832
:1010D0008901ECE7FFF710FFA0EB0901514502D9A8
:1010E0000320BDE8F0872068696800F00C00B0EBD1
:1010F000810FEFD1D8F80010404601F00701B1424E
:1011000007D90770006800F00700B04201D0012045
:10111000E7E72878400705D52068E96820F4E05023
:10112000084320602878000706D52068296920F444
:10113000604040EAC100206000F018F82168084AC9
:10114000C1F30311515CC8400649086006480068B5
:10115000FFF7FAFE0020C4E7003C024008380240D6
:101160009C1900082000002018000020154810B528
:10117000006810F00C02144813D01449042A0FD050
:10118000082A0ED10F4C241F2268236802F03F0268
:101190005B0207D52068C0F38810A0FB010106E0C0
:1011A000084610BD2168C1F38811A1FB000100238E
:1011B000FFF70EF82168C1F30141491C4900B0FB5B
:1011C000F1F010BD083802400024F40040787D01A1
:1011D0002DE9F84F04006ED02078DFF84C93C0075B
:1011E000A9F104054AD009F104000168C1F38101A5
:1011F000012908D00068C0F3810002280AD1D9F87B
:101200000000400206D52868800337D560680028B2
:10121000E1D033E06068B0F5803F10D0B0F5A02F8A
:10122000286810D020F480302860286820F48020BE
:1012300028606068A8B1FFF75FFE06460DE02868E9
:1012400040F48030F4E740F480202860F7E700BFE6
:10125000FFF752FE801B642873D828688003F7D5F7
:101260000CE0FFF749FE064605E000BFFFF744FE2D
:10127000801B6428F0D828688003F7D42078DFF832
:10128000AC8280074FF0000A3ED5A748001D0168D8
:1012900011F00C0F08D00068C0F3810002280BD1B8
:1012A000D9F80000400207D42868800716D5E06806
:1012B000012800D112E033E1E068B8B10120C8F89C
:1012C0000000FFF719FE064605E000BFFFF714FE19
:1012D000801B0228C0D828688007F7D528682169B4
:1012E00020F0F80040EAC10028600DE0C8F800A036
:1012F000FFF702FE064604E0FFF7FEFD801B022812
:101300001FD828688007F7D42078000722D5864F99
:1013100087486169703771B101210160FFF7ECFD09
:10132000064604E0FFF7E8FD801B022809D838686C
:101330008007F7D50EE0C0F800A0FFF7DDFD0646F8
:1013400005E082E0FFF7D8FD801B02287DD83868D1
:101350008007F7D42078400768D5DFF8CCB10027A4
:101360000BF13C0BDBF80000C0000BD4DBF80010E5
:1013700041F08051CBF80010DBF80000012700F0AD
:10138000805000906B4E3068C00510D4306840F437
:1013900080703060FFF7B0FD009005E0FFF7ACFD16
:1013A0000099401A022850D83068C005F6D55E4E24
:1013B000A0686C3601280FD00528306810D020F0C6
:1013C00001003060306820F004003060A068B8B1DF
:1013D000FFF792FD00900FE0306840F00100F4E765
:1013E00040F004003060F7E7FFF786FD0099411AEE
:1013F00041F28830814266D830688007F4D50EE02B
:10140000FFF77AFD009007E0FFF776FD0099411A9B
:1014100041F28830814256D830688007F4D42FB129
:10142000DBF8001021F08051CBF80010A069C8B3A0
:101430003D49091D0968C1F3810102294AD00228EA
:10144000504607D0C8F8600000E03CE0FFF754FDCC
:1014500004463BE04746C8F86000FFF74DFD0646EE
:1014600005E000BFFFF748FD801B02282BD8286845
:101470008001F7D4D4E907010843A16A2E4A49083C
:1014800002EB0141626A41EA8211084394F82C1090
:1014900040EA0161C9F8001001203866FFF72CFD11
:1014A000044606E03EE000BFFFF726FD001B0228D1
:1014B00009D828688001F7D534E000BFFFF71CFD8C
:1014C000001B022802D90320BDE8F88F286880019C
:1014D000F4D427E00128F7D0D9F80000E26900F43D
:1014E000800191421CD1226A00F03F01914217D144
:1014F00047F6C071626A0140B1EB821F10D1A26A47
:101500004FF0FF3300F4403103EB5202B1EB024FD6
:1015100006D194F82C1000F07060B0EB016F01D090
:101520000120D1E70020CFE7043802400000474205
:10153000800E4742007000400000FFFF10B5401EC3
:10154000B0F1807F01D3012010BD4FF0E024606135
:101550000F21601700F0C9F80020A061072020616A
:10156000002010BDFEE700007FB500211A48009161
:1015700001910291174A0391026001244FF48032D5
:101580000461C0E90121017680F82010134AC0E906
:101590000A210225C561C16080F830104461FFF75F
:1015A000E3FA08B172B6FEE707200094CDE90140E6
:1015B00069460948FFF704F908B172B6FEE76946C3
:1015C00005480195FFF7FCF8002801D072B6FEE748
:1015D0007FBD000000200140240000200100000F1A
:1015E00030B587B014216846FEF72AFE154800245E
:1015F000016841F080010160016801F080010591FE
:10160000016841F001010160016801F001010591EB
:10161000016841F00801016000680B4D00F008000E
:1016200005900022FF212846FFF760FCFF20009074
:101630000120CDE90104694628460394FFF766FBC3
:1016400007B030BD30380240000C0240FEE7FEE734
:1016500070477047FFF756BC10B592B0302168460E
:10166000FEF7EEFD14210CA8FEF7EAFD1848002451
:10167000016841F080510160006800F080501190D5
:101680001448016821F4404141F4004101600068C0
:10169000069400F440401190022000900120039035
:1016A000102004906846FFF793FD08B172B6FEE77C
:1016B0000F20CDE90C040E940F9400210CA8109477
:1016C000FFF7BAFC002801D072B6FEE712B010BDD9
:1016D00040380240007000400248016841F4700147
:1016E0000160704788ED00E0FEE70907090E002859
:1016F00004DB00F1E02080F80014704700F00F00D8
:1017000000F1E02080F8141D704702E008C8121FA5
:1017100008C1002AFAD170477047002001E001C1DA
:10172000121F002AFBD1704730B50D4600240A2154
:1017300009E000BF90FBF1F301FB130390FBF1F014
:1017400030332B55641C0028F4D13020944202DA47
:101750002855641CFAE72146284600F00BF90020C2
:101760002855204630BD10B50446000900F086F823
:1017700004F00F0000F082F8BDE81040322000F0C5
:1017800006B910B50446000900F08EF804F00F0009
:1017900000F08AF8BDE81040322000F0F8B80000F0
:1017A00010B5084C012204212046FFF79FFB0A20B8
:1017B00000F0EDF820460022BDE810400421FFF7BC
:1017C00095BB0000000C024000EB8110C0B240F05D
:1017D0008000FFF7C8BF0000F0B585B001240325E5
:1017E000002603950094244FCDE90146694638460A
:1017F000FFF78CFA022003958DE8510069463846C0
:10180000FFF784FA042003958DE8510069463846B5
:10181000FFF77CFAF02003958DE8510069463846C1
:10182000FFF774FA002202213846FFF75FFB00F051
:101830005BF82820FFF797FF4FF47A74204600F0FA
:10184000A6F80C20FFF78FFF204600F0A0F8062036
:10185000FFF789FF204600F09AF80120FFF783FF89
:101860006400204600F093F88020FFF77CFF2046BC
:1018700000F08DF805B0F0BD000C024010B5044634
:10188000002201210748FFF731FB064814300168A8
:1018900021F0F00141EA04110160BDE81040FFF7BA
:1018A0007FBF0000000C024010B504460122114623
:1018B0000748FFF71BFB06481430016821F0F001D0
:1018C00041EA04110160BDE81040FFF769BF000064
:1018D000000C024010B5044602E0641CFFF751FF03
:1018E00020780028F9D110BD194810B5016841F0E1
:1018F000F0010160164C0122143C11462046FFF70E
:10190000F5FA012204212046FFF7F0FA44F62060A0
:1019100000F03DF80320FFF7B1FF43F6982000F0F8
:1019200036F80320FFF7AAFF41F28834204600F082
:101930002EF80320FFF7A2FF204600F028F802202F
:10194000FFF79CFF2046BDE8104000F020B80000E3
:10195000140C0240FFF7DEFAFFF77EFEFFF740FEB1
:10196000FFF702FEFFF738FF0148FFF761F9FEE7D6
:101970002400002010B50022491E05E0835C445C71
:1019800084544354491E521C8A42F7DB10BD00EBBD
:10199000401101EBC010401EFDD270470000000056
:1019A000000000000102030406070809CC19000822
:1019B00000000020240000000A170008F0190008A9
:1019C000240000205C0400001A170008000000003A
:1019D0000000000000000000000000000000000007
:1019E0000100000010000000000000000024F400CE
:040000050800019559
:00000001FF
