:020000040800F2
:1000000000800120E50200086B0200087102000870
:10001000770200087D02000883020008000000004B
:10002000000000000000000000000000890200083D
:100030009702000800000000A5020008B3020008B3
:1000400035030008350300083503000835030008B0
:1000500035030008350300083503000835030008A0
:100060003503000835030008350300083503000890
:100070003503000835030008350300083503000880
:1000800035030008350300083503000800000000B0
:100090000000000000000000000000003503000820
:1000A0003503000835030008350300083503000850
:1000B0003503000835030008350300083503000840
:1000C0003503000835030008350300083503000830
:1000D0003503000835030008350300080000000060
:1000E0003503000835030008350300080000000050
:1000F00000000000000000000000000035030008C0
:10010000000000003503000835030008350300082F
:1001100000000000000000000000000000000000DF
:1001200035030008350300083503000835030008CF
:10013000350300080000000000000000000000007F
:10014000000000000000000000000000350300086F
:10015000350300083503000835030008350300089F
:10016000350300083503000800000000000000000F
:10017000000000000000000000000000000000007F
:10018000000000003503000800000000000000002F
:04019000350300082B
:1001940010B5054C237833B9044B13B10448AFF3BD
:1001A40000800123237010BD040000200000000023
:1001B400A803000808B5034B1BB103490348AFF378
:1001C400008008BD0000000008000020A80300080B
:1001D40080B582B000AF124B3B60124B1B6B114ACF
:1001E40043F001031363104B1B680F4A23F47F434E
:1001F40013600D4B1B680C4A43F4AA4313607B68DD
:100204005A1C7A6003F0030307F10802134413F83D
:10021400082C054B5A61642000F008F8EFE700BF92
:10022400903060C0003802400000024080B485B0C5
:1002340000AF78600DE00023FB6002E0FB6801334F
:10024400FB60FB6840F67A429342F7DD7B68013B32
:100254007B607B68002BEEDC00BF00BF1437BD461B
:100264005DF8047B704780B400AFFEE780B400AF54
:10027400FEE780B400AFFEE780B400AFFEE780B4D1
:1002840000AFFEE780B400AF00BFBD465DF8047B5D
:10029400704780B400AF00BFBD465DF8047B704773
:1002A40080B400AF00BFBD465DF8047B704780B5E5
:1002B40000AF00F03FF800BF80BD000080B400AF85
:1002C400064BD3F88830054A43F47003C2F88830EB
:1002D40000BFBD465DF8047B704700BF00ED00E041
:1002E400DFF834D00D480E490E4A002302E0D458FA
:1002F400C4500433C4188C42F9D30B4A0B4C00236A
:1003040001E013600432A242FBD3FFF7D7FF00F0F1
:1003140025F8FFF75DFF70470080012000000020F2
:1003240004000020C803000804000020240000206A
:10033400FEE7000080B400AF064B1B781A46064B5C
:100344001B681344044A136000BFBD465DF8047B78
:10035400704700BF000000202000002070B50D4D44
:100364000D4C641BA4100026A64209D10B4D0C4C65
:1003740000F018F8641BA4100026A64205D170BD35
:1003840055F8043B98470136EEE755F8043B984787
:100394000136F2E7C0030008C0030008C0030008E8
:1003A400C4030008F8B500BFF8BC08BC9E467047FB
:0C03B400F8B500BFF8BC08BC9E467047BE
:0403C000B901000877
:0403C4009501000897
:0403C8000100000030
:04000005080002E508
:00000001FF
