:020000040800F2
:1000000030040020AD010008330D0008850C000805
:10001000310D0008B9020008290E00080000000098
:10002000000000000000000000000000930D000828
:10003000FD03000800000000910D0008950D000868
:10004000C7010008C7010008C7010008C701000870
:10005000C7010008C7010008C7010008C701000860
:10006000C7010008C7010008C7010008C701000850
:10007000C7010008C7010008C7010008C701000840
:10008000C7010008C7010008C70100080000000000
:10009000000000000000000000000000C701000890
:1000A000C7010008C7010008C7010008C701000810
:1000B000C7010008C7010008C7010008C701000800
:1000C000C7010008C7010008C7010008C7010008F0
:1000D000C7010008C7010008C701000800000000B0
:1000E000C7010008C7010008C701000800000000A0
:1000F000000000000000000000000000C701000830
:1001000000000000C7010008C7010008C70100087F
:1001100000000000000000000000000000000000DF
:10012000C7010008C7010008C7010008C70100088F
:10013000C7010008000000000000000000000000EF
:10014000000000000000000000000000C7010008DF
:10015000C7010008C7010008C7010008C70100085F
:10016000C7010008C70100080000000000000000EF
:10017000000000000000000000000000000000007F
:1001800000000000C701000800000000000000009F
:10019000C7010008DFF810D000F07CF800480047E5
:1001A00095100008AFF30080300400200648804717
:1001B00006480047FEE7FEE7FEE7FEE7FEE7FEE74C
:1001C000FEE7FEE7FEE7FEE7190E000895010008CE
:1001D0002DE9F05F0546002092469B46884606467C
:1001E000814640241BE0284641464746224600F00F
:1001F00041F853465A46C01A914110D31146184649
:10020000224600F028F82D1A67EB01084F462246D7
:100210000120002100F01FF817EB00094E41201EBD
:10022000A4F10104DFDC484631462A464346BDE8D6
:10023000F09FD2B201E000F8012B491EFBD27047BB
:100240000022F6E710B513460A4604461946FFF7A2
:10025000F0FF204610BD202A04DB203A00FA02F10C
:10026000002070479140C2F1200320FA03F31943A4
:1002700090407047202A04DB203A21FA02F0002146
:10028000704721FA02F3D040C2F1200291400843A6
:1002900019467047064C074D06E0E06840F0010340
:1002A00094E8070098471034AC42F6D3FFF776FF86
:1002B00084110008A4110008FEE77CB505460C4631
:1002C000002000F037FD002000F058FD4FF4FA70D8
:1002D00000F096F8012000F051FD1E2000F090F88B
:1002E000012000F027FD684600F03EF800231A4682
:1002F0006846815C521C1944D2B2CBB2042AF8D3AE
:100300009DF80400984219D1BDF80200F2EE040AEB
:1003100040BA00EE100ABDF800100120B8EE400A05
:1003200049BA80EE201A00EE101AB8EE400A85EDA8
:10033000001A80EE201A84ED001A7CBD00207CBDDE
:10034000084A10B5506000205180012404FA00F3DF
:100350000B4201D0107010BD401CC0B21028F5D364
:1003600010BD0000080000202DE9F04106460024E1
:100370002746282000F044F800F0F4FC0028FBD0C9
:1003800000F0F0FC0028FBD11F254FF0010800BF52
:1003900000F0E8FC0028FBD0282000F031F800F045
:1003A000E1FC10B108FA05F0044300F0DBFC002882
:1003B000FBD16D1E6DB2002DEADA072500F0D2FCEC
:1003C0000028FBD0282000F01BF800F0CBFC18B16F
:1003D00008FA05F03843C7B200F0C4FC0028FBD18E
:1003E0006D1E6DB2002DE9DA200E3070200C707099
:1003F000200AB070F4703771BDE8F08170470000DA
:100400000449054A0968B1FBF2F14143491EFDD296
:10041000704700001C000020C0C62D0070B50446C7
:1004200000F008F90546601C02D004480078044436
:1004300000F000F9401BA042FAD370BD100000206C
:100440002DE9F84FDFF8B8A1002201240AF1040BCE
:1004500003254FF00F090BF1040E00BF0B6804FADF
:1004600002F63340B34273D10F7907F00307012F2F
:1004700001D0022F16D187684FEA420805FA08FC1E
:1004800027EA0C07D1F80CC00CFA08FC4CEA070C60
:10049000C0F808C04768B7430E79C6F30016964007
:1004A0003E4346600E79F643B6070DD0C768560046
:1004B00005FA06FC27EA0C07D1F808C00CFA06FC7E
:1004C0004CEA070CC0F80CC00E7906F00306022EA9
:1004D00010D1D60800EB8608D8F8206057074FEAFD
:1004E000D76C09FA0CF7BE430F6907FA0CF73743CC
:1004F000C8F8207006684FEA420C05FA0CF7BE43B4
:100500000F7907F0030707FA0CF7374307604E68C7
:1005100016F4403F6DD03B4E376847F48047376054
:10052000366822F0030706F480460096364E07EB45
:10053000060CDCF8086897073F0F09FA07F826EA67
:100540000806DFF8C880404503D14FF000081EE0E0
:100550004FE0DFF8BC80404502D14FF0010816E0C3
:10056000DFF8B080404502D14FF002080FE0DFF81D
:10057000A880404502D14FF0030808E0DFF89C80D6
:10058000404502D14FF0040801E04FF0070808FA97
:1005900007F848EA0608CCF80888DAF800605746F9
:1005A000D1F804C09E435FEACC3C00D51E433E60B8
:1005B000DBF800605F46D1F804C09E435FEA8C3CE4
:1005C00000D51E433E60DEF800607746D1F804C0D7
:1005D0009E435FEACC2C00D51E433E60084F0C378B
:1005E0003E68D1F804C09E435FEA8C2C00D51E43C0
:1005F0003E60521C102AFFF431AFBDE8F88F0000B6
:10060000003C0140443802400030014000000240FC
:100610000004024000080240000C024000100240AA
:100620000069084000D0012070470AB1816170471D
:100630000904FBE7014880687047000010000020B3
:1006400002488168027811448160704710000020E0
:100650000B4810B5016841F400710160016841F474
:1006600080610160016841F480710160032000F045
:1006700061F8002000F006F800F024F8002010BD1A
:10068000003C024070B50D4D04464FF47A71287855
:10069000B1FBF0F00A490968B1FBF0F000F0DEFAB6
:1006A00048B9102C07D200222146501E00F022F833
:1006B00000206C6070BD012070BD000010000020A3
:1006C0001C0000200A4808B5016841F4804101601F
:1006D000006800F4804000900548001F016841F068
:1006E00080510160006800F08050009008BD00005B
:1006F00044380240F0B40E4B1B680C46C3F302238F
:10070000C3F10705042D00D90425191D072901D2BD
:10071000002300E0DB1E012606FA05F1491E2140F8
:1007200099409E40761E16403143F0BC00F07DBBE0
:100730000CED00E0064900F0070208684FF6FF03E1
:10074000184040EA0220034A104308607047000046
:100750000CED00E00000FA052DE9F0470E4605001B
:1007600065D0DFF81481D8F80000F7B200F0070078
:10077000B04207D288F80070D8F8000000F00700F7
:10078000B04254D128683D4C810712D5400703D5AB
:10079000206840F4E05020602878000703D52068E6
:1007A00040F4604020602068A96820F0F000084311
:1007B00020602878C0072DD03049686808390128A2
:1007C00012D0022813D0032811D009688907002904
:1007D0002DDA216821F0030101432160FFF72AFF90
:1007E000814641F2883A0EE009688903EFE709681B
:1007F0008901ECE7FFF71EFFA0EB0901514502D983
:100800000320BDE8F0872068696800F00C00B0EBB9
:10081000810FEFD1D8F80010404601F00701B14236
:1008200007D90770006800F00700B04201D001202E
:10083000E7E72878400705D52068E96820F4E0500C
:10084000084320602878000706D52068296920F42D
:10085000604040EAC100206000F018F82168084AB2
:10086000C1F30311515CC84006490860064800689E
:10087000FFF708FF0020C4E7003C024008380240B0
:10088000741100081C00002014000020154810B549
:10089000006810F00C02144813D01449042A0FD039
:1008A000082A0ED10F4C241F2268236802F03F0251
:1008B0005B0207D52068C0F38810A0FB010106E0A9
:1008C000084610BD2168C1F38811A1FB0001002377
:1008D000FFF77EFC2168C1F30141491C4900B0FBD0
:1008E000F1F010BD083802400024F40040787D018A
:1008F0002DE9F84F04006ED02078DFF84C93C00744
:10090000A9F104054AD009F104000168C1F381018D
:10091000012908D00068C0F3810002280AD1D9F863
:100920000000400206D52868800337D5606800289B
:10093000E1D033E06068B0F5803F10D0B0F5A02F73
:10094000286810D020F480302860286820F48020A7
:1009500028606068A8B1FFF76DFE06460DE02868C4
:1009600040F48030F4E740F480202860F7E700BFCF
:10097000FFF760FE801B642873D828688003F7D5D2
:100980000CE0FFF757FE064605E000BFFFF752FEFA
:10099000801B6428F0D828688003F7D42078DFF81B
:1009A000AC8280074FF0000A3ED5A748001D0168C1
:1009B00011F00C0F08D00068C0F3810002280BD1A1
:1009C000D9F80000400207D42868800716D5E068EF
:1009D000012800D112E033E1E068B8B10120C8F885
:1009E0000000FFF727FE064605E000BFFFF722FEE6
:1009F000801B0228C0D828688007F7D5286821699D
:100A000020F0F80040EAC10028600DE0C8F800A01E
:100A1000FFF710FE064604E0FFF70CFE801B0228DD
:100A20001FD828688007F7D42078000722D5864F82
:100A300087486169703771B101210160FFF7FAFDE4
:100A4000064604E0FFF7F6FD801B022809D8386847
:100A50008007F7D50EE0C0F800A0FFF7EBFD0646D3
:100A600005E082E0FFF7E6FD801B02287DD83868AC
:100A70008007F7D42078400768D5DFF8CCB100278D
:100A80000BF13C0BDBF80000C0000BD4DBF80010CE
:100A900041F08051CBF80010DBF80000012700F096
:100AA000805000906B4E3068C00510D4306840F420
:100AB00080703060FFF7BEFD009005E0FFF7BAFDE3
:100AC0000099401A022850D83068C005F6D55E4E0D
:100AD000A0686C3601280FD00528306810D020F0AF
:100AE00001003060306820F004003060A068B8B1C8
:100AF000FFF7A0FD00900FE0306840F00100F4E740
:100B000040F004003060F7E7FFF794FD0099411AC8
:100B100041F28830814266D830688007F4D50EE013
:100B2000FFF788FD009007E0FFF784FD0099411A68
:100B300041F28830814256D830688007F4D42FB112
:100B4000DBF8001021F08051CBF80010A069C8B389
:100B50003D49091D0968C1F3810102294AD00228D3
:100B6000504607D0C8F8600000E03CE0FFF762FDA7
:100B700004463BE04746C8F86000FFF75BFD0646C9
:100B800005E000BFFFF756FD801B02282BD8286820
:100B90008001F7D4D4E907010843A16A2E4A490825
:100BA00002EB0141626A41EA8211084394F82C1079
:100BB00040EA0161C9F8001001203866FFF73AFDEC
:100BC000044606E03EE000BFFFF734FD001B0228AC
:100BD00009D828688001F7D534E000BFFFF72AFD67
:100BE000001B022802D90320BDE8F88F2868800185
:100BF000F4D427E00128F7D0D9F80000E26900F426
:100C0000800191421CD1226A00F03F01914217D12C
:100C100047F6C071626A0140B1EB821F10D1A26A2F
:100C20004FF0FF3300F4403103EB5202B1EB024FBF
:100C300006D194F82C1000F07060B0EB016F01D079
:100C40000120D1E70020CFE70438024000004742EE
:100C5000800E4742007000400000FFFF10B5401EAC
:100C6000B0F1807F01D3012010BD4FF0E02460611E
:100C70000F21601700F0D9F80020A0610720206143
:100C8000002010BDFEE70000F0B587B014216846D3
:100C9000FFF7D6FA22480024016841F00401016000
:100CA000016801F004010591016841F00101016052
:100CB000016801F001010591016841F0080101603E
:100CC0000068184E00F008004FF4087505900022E7
:100CD00029463046FFF7A9FC134F0022FF21384672
:100CE000FFF7A3FC4FF40050CDE9000469460F481C
:100CF0000294FFF7A5FB00950125CDE90154694653
:100D000030460394FFF79CFBFF200090CDE901548F
:100D1000694638460394FFF793FB07B0F0BD000027
:100D20003038024000000240000C0240000802403F
:100D3000FEE7FEE700B585B04FF400710091002199
:100D40000391029110B1012803D003E0012001902A
:100D500000E0019169460248FFF772FB05B000BD53
:100D600000000240044810B541884068FFF758FC75
:100D700000F0010010BD0000080000200200034840
:100D80004188406800D00122FFF74FBC08000020D6
:100D900070477047FFF754BC10B592B030216846D9
:100DA000FFF74EFA14210CA8FFF74AFA184800245E
:100DB000016841F080510160006800F0805011909E
:100DC0001448016821F4404141F400410160006889
:100DD000069400F4404011900220009001200390FE
:100DE000102004906846FFF783FD08B172B6FEE755
:100DF0000F20CDE90C040E940F9400210CA8109440
:100E0000FFF7AAFC002801D072B6FEE712B010BDB1
:100E100040380240007000400248016841F470010F
:100E20000160704788ED00E0FEE70907090E002821
:100E300004DB00F1E02080F80014704700F00F00A0
:100E400000F1E02080F8141D704702E008C8121F6E
:100E500008C1002AFAD170477047002001E001C1A3
:100E6000121F002AFBD1704730B50D4600240A211D
:100E700009E000BF90FBF1F301FB130390FBF1F0DD
:100E800030332B55641C0028F4D13020944202DA10
:100E90002855641CFAE72146284600F057F900203F
:100EA0002855204630BD10B50446000900F086F8EC
:100EB00004F00F0000F082F8BDE81040322000F08E
:100EC00052B910B50446000900F08EF804F00F0086
:100ED00000F08AF8BDE81040322000F044B900006C
:100EE00010B5084C012204212046FFF79EFB0A2082
:100EF00000F039F920460022BDE810400421FFF738
:100F000094BB0000000C024000EB8110C0B240F026
:100F10008000FFF7C8BF0000F0B585B001240325AD
:100F2000002603950094244FCDE9014669463846D2
:100F3000FFF786FA022003958DE85100694638468E
:100F4000FFF77EFA042003958DE851006946384684
:100F5000FFF776FAF02003958DE851006946384690
:100F6000FFF76EFA002202213846FFF75EFB00F021
:100F70005BF82820FFF797FF4FF47A74204600F0C3
:100F8000F2F80C20FFF78FFF204600F0ECF8062067
:100F9000FFF789FF204600F0E6F80120FFF783FF06
:100FA0006400204600F0DFF88020FFF77CFF204639
:100FB00000F0D9F805B0F0BD000C024010B50446B1
:100FC000002201210748FFF730FB06481430016872
:100FD00021F0F00141EA04110160BDE81040FFF783
:100FE0007FBF0000000C024010B5044601221146EC
:100FF0000748FFF71AFB06481430016821F0F0019A
:1010000041EA04110160BDE81040FFF769BF00002C
:10101000000C024010B5044602E0641CFFF751FFCB
:1010200020780028F9D110BD194810B5016841F0A9
:10103000F0010160164C0122143C11462046FFF7D6
:10104000F4FA012204212046FFF7EFFA44F620606B
:1010500000F089F80320FFF7B1FF43F6982000F075
:1010600082F80320FFF7AAFF41F28834204600F0FF
:101070007AF80320FFF7A2FF204600F074F8022060
:10108000FFF79CFF2046BDE8104000F06CB8000060
:10109000140C0240FFF7DCFAFFF77EFEFFF7F4FDC9
:1010A0004FF400712048FFF74BF9FFF735FF1F4C55
:1010B0004FF47A751D49091D081FFFF7FEF878B334
:1010C00000210846FFF720FF19A0FFF7A3FF94EDCA
:1010D000000A01221949BDEEC00A10EE100AFFF7FE
:1010E000C3FE02210620FFF70FFF1448FFF792FF0F
:1010F00001210020FFF708FF11A0FFF78BFF94EDFF
:10110000010A00220D49BDEEC00A10EE100AFFF7D9
:10111000ABFE01210920FFF7F7FE0848FFF77AFF31
:101120002846FFF77BF9C5E70000024000000020D9
:1011300054656D70433D2020000000002000002019
:1011400048756D69646974793D20200010B50022EE
:10115000491E05E0835C445C84544354491E521C80
:101160008A42F7DB10BD00EB401101EBC010401EBE
:10117000FDD27047000000000000000001020304DF
:1011800006070809A4110008000000202000000044
:101190004A0E0008C41100082000002010040000BE
:1011A0005A0E0008000000000000000000000000CF
:1011B000000000000100000010000000000000001E
:0411C0000024F40013
:040000050800019559
:00000001FF
