:020000040800F2
:1000000000800120D1020008590200085F020008A8
:10001000650200086B020008710200080000000081
:10002000000000000000000000000000770200084F
:10003000850200080000000093020008A1020008E9
:100040002103000821030008210300082103000800
:1000500021030008210300082103000821030008F0
:1000600021030008210300082103000821030008E0
:1000700021030008210300082103000821030008D0
:1000800021030008210300082103000800000000EC
:100090000000000000000000000000002103000834
:1000A00021030008210300082103000821030008A0
:1000B0002103000821030008210300082103000890
:1000C0002103000821030008210300082103000880
:1000D000210300082103000821030008000000009C
:1000E000210300082103000821030008000000008C
:1000F00000000000000000000000000021030008D4
:10010000000000002103000821030008210300086B
:1001100000000000000000000000000000000000DF
:10012000210300082103000821030008210300081F
:100130002103000800000000000000000000000093
:100140000000000000000000000000002103000883
:1001500021030008210300082103000821030008EF
:100160002103000821030008000000000000000037
:10017000000000000000000000000000000000007F
:100180000000000021030008000000000000000043
:04019000210300083F
:1001940010B5054C237833B9044B13B10448AFF3BD
:1001A40000800123237010BD040000200000000023
:1001B4009403000808B5034B1BB103490348AFF38C
:1001C400008008BD0000000008000020940300081F
:1001D40080B400AF1C4B1B6B1B4A43F00103136339
:1001E4001A4B1B68194A23F440631360174B1B68AE
:1001F400164A43F480631360134B1B6C124A43F09A
:1002040002031364124B40F23F629A62104B42F2B3
:100214000F72DA620E4B00225A620D4B01221A60F1
:1002240000BF0B4B1B6903F00103002BF9D0084BF3
:100234001B69074A23F001031361044B5B69034AFA
:1002440083F020035361EBE70038024000000240D2
:100254000004004080B400AFFEE780B400AFFEE7C6
:1002640080B400AFFEE780B400AFFEE780B400AF17
:10027400FEE780B400AF00BFBD465DF8047B704765
:1002840080B400AF00BFBD465DF8047B704780B406
:1002940000AF00BFBD465DF8047B704780B500AF7A
:1002A40000F03EF800BF80BD80B400AF064BD3F829
:1002B4008830054A43F47003C2F8883000BFBD4655
:1002C4005DF8047B704700BF00ED00E0DFF834D038
:1002D4000D480E490E4A002302E0D458C45004339A
:1002E400C4188C42F9D30B4A0B4C002301E0136071
:1002F4000432A242FBD3FFF7D7FF00F025F8FFF743
:1003040067FF7047008001200000002004000020E7
:10031400B40300080400002024000020FEE70000CD
:1003240080B400AF064B1B781A46064B1B68134477
:10033400044A136000BFBD465DF8047B704700BFEC
:10034400000000202000002070B50D4D0D4C641BF2
:10035400A4100026A64209D10B4D0C4C00F018F84D
:10036400641BA4100026A64205D170BD55F8043BB9
:1003740098470136EEE755F8043B98470136F2E713
:10038400AC030008AC030008AC030008B003000889
:10039400F8B500BFF8BC08BC9E467047F8B500BF6E
:0803A400F8BC08BC9E4670473E
:0403AC00B90100088B
:0403B00095010008AB
:0403B4000100000044
:04000005080002D11C
:00000001FF
