:020000040800F2
:100000000080012069030008F1020008F7020008DF
:10001000FD020008030300080903000800000000B7
:100020000000000000000000000000000F030008B6
:100030001D030008000000002B030008390300081E
:10004000B9030008B9030008B9030008B9030008A0
:10005000B9030008B9030008B9030008B903000890
:10006000B9030008B9030008B9030008B903000880
:10007000B9030008B9030008B9030008B903000870
:10008000B9030008B9030008B90300080000000024
:10009000000000000000000000000000B90300089C
:1000A000B9030008B9030008B9030008B903000840
:1000B000B9030008B9030008B9030008B903000830
:1000C000B9030008B9030008B9030008B903000820
:1000D000B9030008B9030008B903000800000000D4
:1000E000B9030008B9030008B903000800000000C4
:1000F000000000000000000000000000B90300083C
:1001000000000000B9030008B9030008B9030008A3
:1001100000000000000000000000000000000000DF
:10012000B9030008B9030008B9030008B9030008BF
:10013000B9030008000000000000000000000000FB
:10014000000000000000000000000000B9030008EB
:10015000B9030008B9030008B9030008B90300088F
:10016000B9030008B9030008000000000000000007
:10017000000000000000000000000000000000007F
:1001800000000000B90300080000000000000000AB
:04019000B9030008A7
:1001940010B5054C237833B9044B13B10448AFF3BD
:1001A40000800123237010BD040000200000000023
:1001B4002C04000808B5034B1BB103490348AFF3F3
:1001C400008008BD00000000080000202C04000886
:1001D40080B400AF414B1B6B404A43F001031363EF
:1001E4003F4B1B683E4A23F4406313603C4B1B683F
:1001F4003B4A43F400631360394B1B6A384A23F4C7
:1002040070031362364B1B6A354A43F4801313623E
:10021400324B1B6C314A43F0010313644FF08043AB
:1002240040F23F629A624FF0804342F20F72DA6208
:100234004FF0804330229A614FF0804300225A638A
:100244004FF080431B6A4FF0804243F00103136276
:100254004FF0804300225A624FF0804301221A601B
:100264001E4B1B6B1D4A43F0010313631C4B1B689D
:100274001B4A23F440531360194B1B68184A43F478
:1002840000531360164B1B6A154A23F07063136204
:10029400134B1B6A124A43F0007313620F4B1B6C1F
:1002A4000E4A43F0020313640E4B43F67F629A62D4
:1002B4000C4B41229A610B4B01221A62094B012219
:1002C4001A6000BF074B1B6903F00203002BF9D02F
:1002D400044B5B6B1A46044B1A60F2E70038024089
:1002E40000000240000400402000002080B400AF61
:1002F400FEE780B400AFFEE780B400AFFEE780B451
:1003040000AFFEE780B400AFFEE780B400AF00BFEB
:10031400BD465DF8047B704780B400AF00BFBD46A6
:100324005DF8047B704780B400AF00BFBD465DF844
:10033400047B704780B500AF00F03EF800BF80BD7D
:1003440080B400AF064BD3F88830054A43F47003F9
:10035400C2F8883000BFBD465DF8047B704700BF1B
:1003640000ED00E0DFF834D00D480E490E4A0023BA
:1003740002E0D458C4500433C4188C42F9D30B4A55
:100384000B4C002301E013600432A242FBD3FFF7BD
:10039400D7FF00F025F8FFF71BFF7047008001200E
:1003A40000000020040000204C0400080400002089
:1003B40028000020FEE7000080B400AF064B1B7845
:1003C4001A46064B1B681344044A136000BFBD461B
:1003D4005DF8047B704700BF00000020240000206B
:1003E40070B50D4D0D4C641BA4100026A64209D116
:1003F4000B4D0C4C00F018F8641BA4100026A64208
:1004040005D170BD55F8043B98470136EEE755F821
:10041400043B98470136F2E744040008440400080A
:100424004404000848040008F8B500BFF8BC08BC40
:100434009E467047F8B500BFF8BC08BC9E4670479E
:04044400B9010008F2
:040448009501000812
:04044C0001000000AB
:040000050800036983
:00000001FF
