:020000040800F2
:1000000000800120E9020008710200087702000860
:100010007D02000883020008890200080000000039
:100020000000000000000000000000008F02000837
:100030009D02000800000000AB020008B9020008A1
:1000400039030008390300083903000839030008A0
:100050003903000839030008390300083903000890
:100060003903000839030008390300083903000880
:100070003903000839030008390300083903000870
:1000800039030008390300083903000800000000A4
:10009000000000000000000000000000390300081C
:1000A0003903000839030008390300083903000840
:1000B0003903000839030008390300083903000830
:1000C0003903000839030008390300083903000820
:1000D0003903000839030008390300080000000054
:1000E0003903000839030008390300080000000044
:1000F00000000000000000000000000039030008BC
:100100000000000039030008390300083903000823
:1001100000000000000000000000000000000000DF
:1001200039030008390300083903000839030008BF
:10013000390300080000000000000000000000007B
:10014000000000000000000000000000390300086B
:10015000390300083903000839030008390300088F
:100160003903000839030008000000000000000007
:10017000000000000000000000000000000000007F
:10018000000000003903000800000000000000002B
:040190003903000827
:1001940010B5054C237833B9044B13B10448AFF3BD
:1001A40000800123237010BD040000200000000023
:1001B400AC03000808B5034B1BB103490348AFF374
:1001C400008008BD0000000008000020AC03000807
:1001D40080B400AF234B1B6B224A43F0010313632B
:1001E400214B1B68204A23F4406313601E4B1B6899
:1001F4001D4A43F4006313601B4B1B6A1A4A03F441
:1002040070031362184B1B6A174A43F4801313627A
:10021400144B1B6C134A43F0010313644FF08043E7
:1002240040F23F629A624FF0804342F20F72DA6208
:100234004FF0804330229A614FF0804300225A638A
:100244004FF080431B6A4FF0804243F00103136276
:100254004FF0804300225A624FF0804301221A601B
:10026400FEE700BF003802400000024080B400AF47
:10027400FEE780B400AFFEE780B400AFFEE780B4D1
:1002840000AFFEE780B400AFFEE780B400AF00BF6C
:10029400BD465DF8047B704780B400AF00BFBD4627
:1002A4005DF8047B704780B400AF00BFBD465DF8C5
:1002B400047B704780B500AF00F03EF800BF80BDFE
:1002C40080B400AF064BD3F88830054A43F470037A
:1002D400C2F8883000BFBD465DF8047B704700BF9C
:1002E40000ED00E0DFF834D00D480E490E4A00233B
:1002F40002E0D458C4500433C4188C42F9D30B4AD6
:100304000B4C002301E013600432A242FBD3FFF73D
:10031400D7FF00F025F8FFF75BFF7047008001204E
:100324000000002004000020CC030008040000208A
:1003340024000020FEE7000080B400AF064B1B78C9
:100344001A46064B1B681344044A136000BFBD469B
:100354005DF8047B704700BF0000002020000020EF
:1003640070B50D4D0D4C641BA4100026A64209D196
:100374000B4D0C4C00F018F8641BA4100026A64288
:1003840005D170BD55F8043B98470136EEE755F8A2
:10039400043B98470136F2E7C4030008C40300088D
:1003A400C4030008C8030008F8B500BFF8BC08BCC3
:1003B4009E467047F8B500BFF8BC08BC9E4670471F
:0403C400B901000873
:0403C8009501000893
:0403CC00010000002C
:04000005080002E904
:00000001FF
