:020000040800F2
:1000000038040020AD01000847100008650D000805
:1000100045100008A5040008E110000800000000D9
:100020000000000000000000000000004B1000086D
:10003000A704000800000000491000084D10000847
:10004000C7010008C7010008C7010008C701000870
:10005000C7010008C7010008C7010008C701000860
:10006000C7010008C7010008C7010008C701000850
:10007000C7010008C7010008C7010008C701000840
:10008000C7010008C7010008C70100080000000000
:10009000000000000000000000000000C701000890
:1000A000C7010008C7010008C7010008C701000810
:1000B000C7010008C7010008C7010008C701000800
:1000C000C7010008C7010008C7010008C7010008F0
:1000D000C7010008C7010008C701000800000000B0
:1000E000C7010008C7010008C701000800000000A0
:1000F000000000000000000000000000C701000830
:1001000000000000C7010008C7010008C70100087F
:1001100000000000000000000000000000000000DF
:10012000C7010008C7010008C7010008C70100088F
:10013000C7010008000000000000000000000000EF
:10014000000000000000000000000000C7010008DF
:10015000C7010008C7010008C7010008C70100085F
:10016000C7010008C70100080000000000000000EF
:10017000000000000000000000000000000000007F
:1001800000000000C701000800000000000000009F
:10019000C7010008DFF810D000F072F900480047EE
:1001A00021110008AFF30080380400200648804782
:1001B00006480047FEE7FEE7FEE7FEE7FEE7FEE74C
:1001C000FEE7FEE7FEE7FEE7D11000089501000814
:1001D0002DE9F05F0546002092469B46884606467C
:1001E000814640241BE0284641464746224600F00F
:1001F000D9F853465A46C01A914110D311461846B1
:10020000224600F0C0F82D1A67EB01084F4622463F
:100210000120002100F0B7F817EB00094E41201E25
:10022000A4F10104DFDC484631462A464346BDE8D6
:10023000F09FD2B201E000F8012B491EFBD27047BB
:100240000022F6E710B513460A4604461946FFF7A2
:10025000F0FF204610BD2DE9FE4F81EA030404F0B3
:10026000004421F0004100944FF0000B23F00043C4
:1002700050EA01045ED052EA03045BD0C3F30A548F
:10028000C1F30A552C44A4F2F3340194A0FB0254A8
:10029000C1F3130141F48011C3F3130343F480133A
:1002A00001FB024400FB034E840A970A44EA81548E
:1002B00047EA8357A4FB076802958D0A05FB07856B
:1002C0004FEA932C04FB0C542705029D4FEA065875
:1002D00047EA1637B5EB08056EEB070C870E920E52
:1002E00047EA811742EA8312A7FB0201B6EB0B0132
:1002F00064EB00042B0D43EA0C335E1844EB1C50F6
:10030000DA465146E7FB0201C5F313044FEA0B330B
:1003100043EA14534FEA0432019C43EA0603A4F172
:100320000C040294009CCDE900B400F05AF803B02C
:10033000BDE8F08F00200146F9E70EB540F23341E9
:1003400002910021CDE900110A460B4600F049F860
:1003500003B000BDC1F30A5210B5C1F3130140F25E
:10036000FF3341F480119A4201DA002010BD40F2BF
:1003700033439A42A2F2334203DC524200F012F8B5
:1003800010BD904010BD202A04DB203A00FA02F193
:10039000002070479140C2F1200320FA03F3194373
:1003A00090407047202A04DB203A21FA02F0002115
:1003B000704721FA02F3D040C2F120029140084375
:1003C0001946704710B5141E73F1000408DA401C7A
:1003D00041F1000192185B411A4301D120F0010064
:1003E00010BD2DE9F04D92469B4611B1B1FA81F254
:1003F00002E0B0FA80F220329046FFF7C4FF0446D4
:100400000F4640EA0A0041EA0B0153465A460843A8
:1004100013D0114653EA010019D0C8F140025046EA
:10042000FFF7C0FF05460E46504659464246FFF7C5
:10043000AAFF084305D0012004E020463946BDE864
:10044000F08D0020054346EAE0762C4337430A98B6
:100450006305E40AA0EB08000022FD0A44EA4754C1
:100460000A3002D500200146E9E70105101969416B
:10047000DDE9084500196941BDE8F04DA2E700003B
:10048000064C074D06E0E06840F0010394E80700E1
:1004900098471034AC42F6D3FFF780FE30120008C4
:1004A00050120008FEE7704770B5044600F002F9EC
:1004B0000546601C02D004480078044400F0FAF8B5
:1004C000401BA042FAD370BD240000202DE9F84F54
:1004D000DFF8B4A1002201240AF1040B03254FF038
:1004E0000F090BF1040E00BF0B6804FA02F633404B
:1004F000B34272D10F7907F00307012F01D0022F09
:1005000016D187684FEA420805FA08FC27EA0C076B
:10051000D1F80CC00CFA08FC4CEA070CC0F808C073
:100520004768B7430E79C6F3001696403E434660CF
:100530000E79F643B6070DD0C768560005FA06FCDB
:1005400027EA0C07D1F808C00CFA06FC4CEA070CA5
:10055000C0F80CC00E7906F00306022E10D1D608A2
:1005600000EB8608D8F8206057074FEAD76C09FAE5
:100570000CF7BE430F6907FA0CF73743C8F8207031
:1005800006684FEA420C05FA0CF7BE430F7907F0F4
:10059000030707FA0CF7374307604E68F6006DD57E
:1005A0003A4E376847F480473760366822F00307D1
:1005B00006F480460096364E07EB060CDCF8086819
:1005C00097073F0F09FA07F826EA0806DFF8C48004
:1005D000404503D14FF000081EE04FE0DFF8B8803F
:1005E000404502D14FF0010816E0DFF8B0804045E9
:1005F00002D14FF002080FE0DFF8A480404502D19D
:100600004FF0030808E0DFF89C80404502D14FF02E
:10061000040801E04FF0070808FA07F848EA06085E
:10062000CCF80888DAF800605746D1F804C09E4339
:100630005FEACC3C00D51E433E60DBF800605F46BD
:10064000D1F804C09E435FEA8C3C00D51E433E6057
:10065000DEF800607746D1F804C09E435FEACC2CF8
:1006600000D51E433E60084F0C373E68D1F804C0E9
:100670009E435FEA8C2C00D51E433E60521C102A1C
:10068000FFF432AFBDE8F88F003C0140443802402F
:100690000030014000000240000402400008024017
:1006A000000C0240001002400AB181617047090449
:1006B000FBE700000148806870470000240000202C
:1006C000024881680278114481607047240000204C
:1006D0000B4810B5016841F400710160016841F4F4
:1006E00080610160016841F480710160032000F0C5
:1006F00061F8002000F006F800F024F8002010BD9A
:10070000003C024070B50D4D04464FF47A712878D4
:10071000B1FBF0F00A490968B1FBF0F000F00EFB04
:1007200048B9102C07D200222146501E00F022F8B2
:1007300000206C6070BD012070BD0000240000200E
:10074000300000200A4808B5016841F4804101608A
:10075000006800F4804000900548001F016841F0E7
:1007600080510160006800F08050009008BD0000DA
:1007700044380240F0B40E4B1B680C46C3F302230E
:10078000C3F10705042D00D90425191D072901D23D
:10079000002300E0DB1E012606FA05F1491E214078
:1007A00099409E40761E16403143F0BC00F099BC43
:1007B0000CED00E0064900F0070208684FF6FF0361
:1007C000184040EA0220034A1043086070470000C6
:1007D0000CED00E00000FA052DE9F0470E4605009B
:1007E00065D0DFF81481D8F80000F7B200F00700F8
:1007F000B04207D288F80070D8F8000000F0070077
:10080000B04254D128683D4C810712D5400703D52A
:10081000206840F4E05020602878000703D5206865
:1008200040F4604020602068A96820F0F000084390
:1008300020602878C0072DD0304968680839012821
:1008400012D0022813D0032811D009688907002983
:100850002DDA216821F0030101432160FFF72AFF0F
:10086000814641F2883A0EE009688903EFE709689A
:100870008901ECE7FFF71EFFA0EB0901514502D902
:100880000320BDE8F0872068696800F00C00B0EB39
:10089000810FEFD1D8F80010404601F00701B142B6
:1008A00007D90770006800F00700B04201D00120AE
:1008B000E7E72878400705D52068E96820F4E0508C
:1008C000084320602878000706D52068296920F4AD
:1008D000604040EAC100206000F048F82168084A02
:1008E000C1F30311515CC84006490860064800681E
:1008F000FFF708FF0020C4E7003C02400838024030
:100900001812000830000020280000200F2202608A
:100910000C4A136803F003034360136803F0F00309
:100920008360136803F4E053C36012684FF4E0532C
:1009300003EAD20202610448006800F00700086080
:100940007047000008380240003C02400448054956
:1009500000680968044AC1F38221515CC8407047AD
:10096000300000200838024028120008154810B551
:10097000006810F00C02144813D01449042A0FD058
:10098000082A0ED10F4C241F2268236802F03F0270
:100990005B0207D52068C0F38810A0FB010106E0C8
:1009A000084610BD2168C1F38811A1FB0001002396
:1009B000FFF70EFC2168C1F30141491C4900B0FB5F
:1009C000F1F010BD083802400024F40040787D01A9
:1009D0002DE9F84F04006ED02078DFF84C93C00763
:1009E000A9F104054AD009F104000168C1F38101AD
:1009F000012908D00068C0F3810002280AD1D9F883
:100A00000000400206D52868800337D560680028BA
:100A1000E1D033E06068B0F5803F10D0B0F5A02F92
:100A2000286810D020F480302860286820F48020C6
:100A300028606068A8B1FFF73DFE06460DE0286813
:100A400040F48030F4E740F480202860F7E700BFEE
:100A5000FFF730FE801B642873D828688003F7D521
:100A60000CE0FFF727FE064605E000BFFFF722FE79
:100A7000801B6428F0D828688003F7D42078DFF83A
:100A8000AC8280074FF0000A3ED5A748001D0168E0
:100A900011F00C0F08D00068C0F3810002280BD1C0
:100AA000D9F80000400207D42868800716D5E0680E
:100AB000012800D112E033E1E068B8B10120C8F8A4
:100AC0000000FFF7F7FD064605E000BFFFF7F2FD67
:100AD000801B0228C0D828688007F7D528682169BC
:100AE00020F0F80040EAC10028600DE0C8F800A03E
:100AF000FFF7E0FD064604E0FFF7DCFD801B02285F
:100B00001FD828688007F7D42078000722D5864FA1
:100B100087486169703771B101210160FFF7CAFD33
:100B2000064604E0FFF7C6FD801B022809D8386896
:100B30008007F7D50EE0C0F800A0FFF7BBFD064622
:100B400005E082E0FFF7B6FD801B02287DD83868FB
:100B50008007F7D42078400768D5DFF8CCB10027AC
:100B60000BF13C0BDBF80000C0000BD4DBF80010ED
:100B700041F08051CBF80010DBF80000012700F0B5
:100B8000805000906B4E3068C00510D4306840F43F
:100B900080703060FFF78EFD009005E0FFF78AFD62
:100BA0000099401A022850D83068C005F6D55E4E2C
:100BB000A0686C3601280FD00528306810D020F0CE
:100BC00001003060306820F004003060A068B8B1E7
:100BD000FFF770FD00900FE0306840F00100F4E78F
:100BE00040F004003060F7E7FFF764FD0099411A18
:100BF00041F28830814266D830688007F4D50EE033
:100C0000FFF758FD009007E0FFF754FD0099411AE7
:100C100041F28830814256D830688007F4D42FB131
:100C2000DBF8001021F08051CBF80010A069C8B3A8
:100C30003D49091D0968C1F3810102294AD00228F2
:100C4000504607D0C8F8600000E03CE0FFF732FDF6
:100C500004463BE04746C8F86000FFF72BFD064618
:100C600005E000BFFFF726FD801B02282BD828686F
:100C70008001F7D4D4E907010843A16A2E4A490844
:100C800002EB0141626A41EA8211084394F82C1098
:100C900040EA0161C9F8001001203866FFF70AFD3B
:100CA000044606E03EE000BFFFF704FD001B0228FB
:100CB00009D828688001F7D534E000BFFFF7FAFCB7
:100CC000001B022802D90320BDE8F88F28688001A4
:100CD000F4D427E00128F7D0D9F80000E26900F445
:100CE000800191421CD1226A00F03F01914217D14C
:100CF00047F6C071626A0140B1EB821F10D1A26A4F
:100D00004FF0FF3300F4403103EB5202B1EB024FDE
:100D100006D194F82C1000F07060B0EB016F01D098
:100D20000120D1E70020CFE704380240000047420D
:100D3000800E4742007000400000FFFF10B5401ECB
:100D4000B0F1807F01D3012010BD4FF0E02460613D
:100D50000F21601700F0C5F90020A0610720206175
:100D6000002010BDFEE70121022000F0E1B80000E4
:100D70002DE9F05F0AAC94E8E05F1E4CA061A18011
:100D8000E280E36125816681A781A4F80E80C4F822
:100D90002090A4F810A0A4F812B0A4F814C0A4F8ED
:100DA00016E000F049F8012020703820A0701420CF
:100DB000FFF77AFB302000F03BF90520FFF774FBCA
:100DC000302000F035F90120FFF76EFB302000F0F5
:100DD0002FF90120FFF768FB382000F029F90F20D8
:100DE00000F026F9012000F023F9BDE8F05F0220B1
:100DF000FFF75ABB0000002010B5094C0122E18822
:100E0000A069FFF751FC0A2000F060F80022E18899
:100E1000A069FFF749FCBDE810403C2000F056B83F
:100E200000000020020003488188806900D0012270
:100E3000FFF73ABC0000002000B587B005A968465E
:100E4000FFF764FD0398A8B3FFF780FD5FEA400059
:100E5000FFF773FA9FED191B53EC112BFFF7FBF90A
:100E6000FFF778FA17490A6842F002020A60164949
:100E70000A6822F010020A600A6822F001020A6081
:100E80000A6822F004020A600A6842F008020A6056
:100E90000D492831401E08600920091D08600A49D3
:100EA000012014310860081F016821F00101016070
:100EB00007B000BDFFE7FFF749FDC9E78DEDB5A01D
:100EC000F7C6B03E40380240000400400949401EC9
:100ED000086008481C38016821F0010101600549DB
:100EE0002C390A6842F001020A600168C907FCD087
:100EF000704700002C04004010B5012000F098F865
:100F0000BDE810400320FFF7CFBA70B506460024B5
:100F100009E00120FFF786FF284600F017F8641C5F
:100F2000E4B2102C02D2355D002DF2D170BD00006C
:100F3000491E01F00F01012804D041F0C00000BF9C
:100F400000F076B841F08000FAE700002DE9F84F94
:100F50000209364C02F0080302F0040B217802F07B
:100F6000020902F0010700F0080A00F0040600F090
:100F7000020500F00108009301292FD0022952D167
:100F80003A46218A206AFFF78FFB4A46618A206A27
:100F9000FFF78AFB5A46A18A206AFFF785FBE18AA0
:100FA000009A206AFFF780FBFFF726FF4246218A5E
:100FB000206AFFF779FB2A46618A206AFFF774FBF3
:100FC0003246A18A206AFFF76FFB5246E18A206A07
:100FD000FFF76AFBBDE8F84FFFF70EBF42462189D5
:100FE000E069FFF761FB2A466189E069FFF75CFB76
:100FF0003246A189E069FFF757FB5246E189E06973
:10100000FFF752FB3A46218A206AFFF74DFB4A461A
:10101000618A206AFFF748FB5A46A18A206AFFF7D7
:1010200043FB009AD2E7BDE8F88F000000000020E3
:1010300010B504460020FFF7F5FE2046BDE810403D
:10104000FFF784BFFEE7FEE770477047FFF738BB46
:1010500010B592B030216846FFF7F2F814210CA8C1
:10106000FFF7EEF818480024016841F08051016054
:10107000006800F0805011901448016821F440414C
:1010800041F4004101600068069400F44040119072
:101090000220009001200390102004906846FFF782
:1010A00097FC08B172B6FEE70F20CDE90C040E9450
:1010B0000F9400210CA81094FFF78EFB002801D09C
:1010C00072B6FEE712B010BD40380240007000401A
:1010D0000248016841F470010160704788ED00E04A
:1010E000FEE70907090E002804DB00F1E02080F884
:1010F0000014704700F00F0000F1E02080F8141D8C
:10110000704702E008C8121F08C1002AFAD17047D0
:101110007047002001E001C1121F002AFBD1704777
:101120008AB0FFF7D5FAFFF793FF14216846FFF75F
:1011300087F827480025016841F001010160006837
:10114000244C00F0010040F2FF3605902A4631465B
:101150002046FFF7A9FA00960126CDE90165694608
:1011600020460395FFF7B2F90DF1140C80234022BD
:10117000202110208CE80F00042102220096CDE9E6
:1011800001210820CDE903048201410123462046C4
:10119000FFF7EEFD10A0FFF7B8FEFFF7E4FD11A08A
:1011A000FFF7B3FE6420FFF77FF9FFF7A5FE10A05D
:1011B000FFF7ABFE6420FFF777F9FFF7D4FD11A02E
:1011C000FFF7A3FE6420FFF76FF9FFF795FEE1E755
:1011D000303802400000024068656C6C6F20776F09
:1011E000726C640053756E696C2070617761720077
:1011F0004645524E48494C4C20544543484E4F4C6E
:101200004F47590053544D33324634205455544FB0
:101210005249414C000000000000000000000000A6
:10122000010203040607080900000000010203048C
:1012300050120008000000203400000002110008D5
:101240008412000834000020040400001211000879
:10125000010F380000000000000000000000000046
:10126000000000000000000000000000000000007E
:10127000000000000100000010000000000000005D
:041280000024F40052
:040000050800019559
:00000001FF
