:020000040800F2
:1000000000800120A1020008290200082F02000838
:10001000350200083B020008410200080000000011
:10002000000000000000000000000000470200087F
:100030005502000800000000630200087102000879
:10004000F1020008F1020008F1020008F1020008C4
:10005000F1020008F1020008F1020008F1020008B4
:10006000F1020008F1020008F1020008F1020008A4
:10007000F1020008F1020008F1020008F102000894
:10008000F1020008F1020008F1020008000000007F
:10009000000000000000000000000000F102000865
:1000A000F1020008F1020008F1020008F102000864
:1000B000F1020008F1020008F1020008F102000854
:1000C000F1020008F1020008F1020008F102000844
:1000D000F1020008F1020008F1020008000000002F
:1000E000F1020008F1020008F1020008000000001F
:1000F000000000000000000000000000F102000805
:1001000000000000F1020008F1020008F1020008FE
:1001100000000000000000000000000000000000DF
:10012000F1020008F1020008F1020008F1020008E3
:10013000F1020008000000000000000000000000C4
:10014000000000000000000000000000F1020008B4
:10015000F1020008F1020008F1020008F1020008B3
:10016000F1020008F1020008000000000000000099
:10017000000000000000000000000000000000007F
:1001800000000000F1020008000000000000000074
:04019000F102000870
:1001940010B5054C237833B9044B13B10448AFF3BD
:1001A40000800123237010BD040000200000000023
:1001B4006403000808B5034B1BB103490348AFF3BC
:1001C400008008BD0000000008000020640300084F
:1001D40080B400AF104B1B6B0F4A43F00103136351
:1001E4000E4B1B680D4A23F4406313600B4B1B68D2
:1001F4000A4A43F480631360094B6FF07F425A60EC
:10020400074B05221A60064B9B689B0C034A03F0BC
:1002140020035361F7E700BF0038024000000240AA
:1002240010E000E080B400AFFEE780B400AFFEE76A
:1002340080B400AFFEE780B400AFFEE780B400AF47
:10024400FEE780B400AF00BFBD465DF8047B704795
:1002540080B400AF00BFBD465DF8047B704780B436
:1002640000AF00BFBD465DF8047B704780B500AFAA
:1002740000F03EF800BF80BD80B400AF064BD3F859
:100284008830054A43F47003C2F8883000BFBD4685
:100294005DF8047B704700BF00ED00E0DFF834D068
:1002A4000D480E490E4A002302E0D458C4500433CA
:1002B400C4188C42F9D30B4A0B4C002301E01360A1
:1002C4000432A242FBD3FFF7D7FF00F025F8FFF773
:1002D4007FFF704700800120000000200400002000
:1002E400840300080400002024000020FEE700002E
:1002F40080B400AF064B1B781A46064B1B681344A8
:10030400044A136000BFBD465DF8047B704700BF1C
:10031400000000202000002070B50D4D0D4C641B22
:10032400A4100026A64209D10B4D0C4C00F018F87D
:10033400641BA4100026A64205D170BD55F8043BE9
:1003440098470136EEE755F8043B98470136F2E743
:100354007C0300087C0300087C0300088003000879
:10036400F8B500BFF8BC08BC9E467047F8B500BF9E
:08037400F8BC08BC9E4670476E
:04037C00B9010008BB
:0403800095010008DB
:040384000100000074
:04000005080002A14C
:00000001FF
