:020000040800F2
:1000000058040020AD0100081B0E0008530D000825
:10001000190E0008B9020008CB0F0008000000000C
:100020000000000000000000000000001F0E00089B
:10003000BB020008000000001D0E0008210E000891
:10004000C7010008C7010008C7010008C701000870
:10005000C7010008C7010008C7010008C701000860
:10006000C7010008C7010008C7010008C701000850
:10007000C7010008C7010008C7010008C701000840
:10008000C7010008C7010008C70100080000000000
:10009000000000000000000000000000C701000890
:1000A000C7010008C7010008C7010008C701000810
:1000B000C7010008C7010008C7010008C701000800
:1000C000C7010008C7010008C7010008C7010008F0
:1000D000C7010008C7010008C701000800000000B0
:1000E000C7010008C7010008C701000800000000A0
:1000F000000000000000000000000000C701000830
:1001000000000000C7010008C7010008C70100087F
:1001100000000000000000000000000000000000DF
:10012000C7010008C7010008C7010008C70100088F
:10013000C7010008000000000000000000000000EF
:10014000000000000000000000000000C7010008DF
:10015000C7010008C7010008C7010008C70100085F
:10016000C7010008C70100080000000000000000EF
:10017000000000000000000000000000000000007F
:1001800000000000C701000800000000000000009F
:10019000C7010008DFF810D000F07CF800480047E5
:1001A00025100008AFF3008058040020064880475F
:1001B00006480047FEE7FEE7FEE7FEE7FEE7FEE74C
:1001C000FEE7FEE7FEE7FEE7B90E0008950100082E
:1001D0002DE9F05F0546002092469B46884606467C
:1001E000814640241BE0284641464746224600F00F
:1001F00041F853465A46C01A914110D31146184649
:10020000224600F028F82D1A67EB01084F462246D7
:100210000120002100F01FF817EB00094E41201EBD
:10022000A4F10104DFDC484631462A464346BDE8D6
:10023000F09FD2B201E000F8012B491EFBD27047BB
:100240000022F6E710B513460A4604461946FFF7A2
:10025000F0FF204610BD202A04DB203A00FA02F10C
:10026000002070479140C2F1200320FA03F31943A4
:1002700090407047202A04DB203A21FA02F0002146
:10028000704721FA02F3D040C2F1200291400843A6
:1002900019467047064C074D06E0E06840F0010340
:1002A00094E8070098471034AC42F6D3FFF776FF86
:1002B0004811000868110008FEE7704770B5044651
:1002C00000F002F90546601C02D00448007804449E
:1002D00000F0FAF8401BA042FAD370BD00000020E5
:1002E0002DE9F84FDFF8B4A1002201240AF1040B34
:1002F00003254FF00F090BF1040E00BF0B6804FA41
:1003000002F63340B34272D10F7907F00307012F91
:1003100001D0022F16D187684FEA420805FA08FC7F
:1003200027EA0C07D1F80CC00CFA08FC4CEA070CC1
:10033000C0F808C04768B7430E79C6F30016964068
:100340003E4346600E79F643B6070DD0C7685600A7
:1003500005FA06FC27EA0C07D1F808C00CFA06FCDF
:100360004CEA070CC0F80CC00E7906F00306022E0A
:1003700010D1D60800EB8608D8F8206057074FEA5E
:10038000D76C09FA0CF7BE430F6907FA0CF737432D
:10039000C8F8207006684FEA420C05FA0CF7BE4315
:1003A0000F7907F0030707FA0CF7374307604E6829
:1003B000F6006DD53A4E376847F4804737603668A7
:1003C00022F0030706F480460096364E07EB060C33
:1003D000DCF8086897073F0F09FA07F826EA0806CD
:1003E000DFF8C480404503D14FF000081EE04FE025
:1003F000DFF8B880404502D14FF0010816E0DFF881
:10040000B080404502D14FF002080FE0DFF8A48031
:10041000404502D14FF0030808E0DFF89C804045DA
:1004200002D14FF0040801E04FF0070808FA07F87E
:1004300048EA0608CCF80888DAF800605746D1F890
:1004400004C09E435FEACC3C00D51E433E60DBF80F
:1004500000605F46D1F804C09E435FEA8C3C00D543
:100460001E433E60DEF800607746D1F804C09E432C
:100470005FEACC2C00D51E433E60084F0C373E6827
:10048000D1F804C09E435FEA8C2C00D51E433E6029
:10049000521C102AFFF432AFBDE8F88F003C014037
:1004A0004438024000300140000002400004024095
:1004B00000080240000C0240001002400AB18161B5
:1004C00070470904FBE7000001488068704700009E
:1004D0000000002002488168027811448160704762
:1004E000000000200B4810B5016841F40071016064
:1004F000016841F480610160016841F4807101602C
:10050000032000F061F8002000F006F800F024F865
:10051000002010BD003C024070B50D4D04464FF464
:100520007A712878B1FBF0F00A490968B1FBF0F064
:1005300000F0DEFA48B9102C07D200222146501EE6
:1005400000F022F800206C6070BD012070BD00003A
:10055000000000200C0000200A4808B5016841F4A2
:1005600080410160006800F4804000900548001F51
:10057000016841F080510160006800F080500090F7
:1005800008BD000044380240F0B40E4B1B680C4616
:10059000C3F30223C3F10705042D00D90425191D57
:1005A000072901D2002300E0DB1E012606FA05F12F
:1005B000491E214099409E40761E16403143F0BCB2
:1005C00000F004BD0CED00E0064900F007020868E9
:1005D0004FF6FF03184040EA0220034A1043086028
:1005E000704700000CED00E00000FA052DE9F0472F
:1005F0000E46050065D0DFF81481D8F80000F7B288
:1006000000F00700B04207D288F80070D8F8000068
:1006100000F00700B04254D128683D4C810712D544
:10062000400703D5206840F4E05020602878000798
:1006300003D5206840F4604020602068A96820F05D
:10064000F000084320602878C0072DD03049686842
:100650000839012812D0022813D0032811D00968C4
:10066000890700292DDA216821F003010143216067
:10067000FFF72AFF814641F2883A0EE009688903B4
:10068000EFE709688901ECE7FFF71EFFA0EB09011E
:10069000514502D90320BDE8F0872068696800F061
:1006A0000C00B0EB810FEFD1D8F80010404601F0FC
:1006B0000701B14207D90770006800F00700B04297
:1006C00001D00120E7E72878400705D52068E968D0
:1006D00020F4E050084320602878000706D5206801
:1006E000296920F4604040EAC100206000F018F859
:1006F0002168084AC1F30311515CC84006490860EB
:1007000006480068FFF708FF0020C4E7003C0240ED
:1007100008380240361100080C00002004000020B8
:10072000154810B5006810F00C02144813D0144995
:10073000042A0FD0082A0ED10F4C241F22682368E8
:1007400002F03F025B0207D52068C0F38810A0FBCF
:10075000010106E0084610BD2168C1F38811A1FB24
:1007600000010023FFF734FD2168C1F30141491C5A
:100770004900B0FBF1F010BD083802400024F4003D
:1007800040787D012DE9F84F04006ED02078DFF825
:100790004C93C007A9F104054AD009F1040001688F
:1007A000C1F38101012908D00068C0F3810002284B
:1007B0000AD1D9F80000400206D52868800337D551
:1007C00060680028E1D033E06068B0F5803F10D069
:1007D000B0F5A02F286810D020F480302860286859
:1007E00020F4802028606068A8B1FFF76DFE0646FF
:1007F0000DE0286840F48030F4E740F48020286061
:10080000F7E700BFFFF760FE801B642873D82868F5
:100810008003F7D50CE0FFF757FE064605E000BF62
:10082000FFF752FE801B6428F0D828688003F7D4B5
:100830002078DFF8AC8280074FF0000A3ED5A74849
:10084000001D016811F00C0F08D00068C0F3810092
:1008500002280BD1D9F80000400207D4286880078D
:1008600016D5E068012800D112E033E1E068B8B1A4
:100870000120C8F80000FFF727FE064605E000BF8C
:10088000FFF722FE801B0228C0D828688007F7D512
:100890002868216920F0F80040EAC10028600DE0D6
:1008A000C8F800A0FFF710FE064604E0FFF70CFEB4
:1008B000801B02281FD828688007F7D420780007FB
:1008C00022D5864F87486169703771B10121016077
:1008D000FFF7FAFD064604E0FFF7F6FD801B02284D
:1008E00009D838688007F7D50EE0C0F800A0FFF7F8
:1008F000EBFD064605E082E0FFF7E6FD801B0228DF
:100900007DD838688007F7D42078400768D5DFF8AD
:10091000CCB100270BF13C0BDBF80000C0000BD47E
:10092000DBF8001041F08051CBF80010DBF800003C
:10093000012700F0805000906B4E3068C00510D445
:10094000306840F480703060FFF7BEFD009005E035
:10095000FFF7BAFD0099401A022850D83068C00548
:10096000F6D55E4EA0686C3601280FD00528306899
:1009700010D020F001003060306820F004003060BA
:10098000A068B8B1FFF7A0FD00900FE0306840F01C
:100990000100F4E740F004003060F7E7FFF794FD52
:1009A0000099411A41F28830814266D83068800748
:1009B000F4D50EE0FFF788FD009007E0FFF784FD17
:1009C0000099411A41F28830814256D83068800738
:1009D000F4D42FB1DBF8001021F08051CBF80010D7
:1009E000A069C8B33D49091D0968C1F38101022905
:1009F0004AD00228504607D0C8F8600000E03CE02A
:100A0000FFF762FD04463BE04746C8F86000FFF789
:100A10005BFD064605E000BFFFF756FD801B022880
:100A20002BD828688001F7D4D4E907010843A16ACC
:100A30002E4A490802EB0141626A41EA82110843E9
:100A400094F82C1040EA0161C9F8001001203866C2
:100A5000FFF73AFD044606E03EE000BFFFF734FD35
:100A6000001B022809D828688001F7D534E000BFB0
:100A7000FFF72AFD001B022802D90320BDE8F88FEA
:100A800028688001F4D427E00128F7D0D9F80000C5
:100A9000E26900F4800191421CD1226A00F03F011A
:100AA000914217D147F6C071626A0140B1EB821FD3
:100AB00010D1A26A4FF0FF3300F4403103EB520231
:100AC000B1EB024F06D194F82C1000F07060B0EB3F
:100AD000016F01D00120D1E70020CFE704380240A8
:100AE00000004742800E4742007000400000FFFFB8
:100AF00010B5401EB0F1807F01D3012010BD4FF032
:100B0000E02460610F21601700F060FA0020A0610E
:100B100007202061002010BD70B590F83C20012A0C
:100B20002CD0012480F83C40022280F83D2003684C
:100B30005A689D6822F070060A6832435A60104B6A
:100B400002689A420ED0B2F1804F0BD00D4B9A4200
:100B500008D00D4B9A4205D00C4B9A4202D00C4B58
:100B60009A4204D1496825F080031943916080F8C6
:100B70003D40002180F83C10084670BD022070BD49
:100B8000000001400004004000080040000C00404C
:100B90000040014010B5040003D094F83D0010B1AE
:100BA00007E0012010BD002084F83C00204600F042
:100BB0001FF8022084F83D00211D206800F084F910
:100BC000012084F8460084F83E0084F83F0084F851
:100BD000400084F8410084F8420084F8430084F81F
:100BE000440084F8450084F83D00002010BD00005A
:100BF00008B500680649884208D10648016841F0F6
:100C000001010160006800F00100009008BD0000D3
:100C1000000001404438024090F83D10012901D005
:100C200001207047022180F83D1000680E4988427B
:100C30000ED0B0F1804F0BD00C49884208D00C493F
:100C4000884205D00B49884202D00B49884204D122
:100C5000816801F00701062903D0016841F0010114
:100C600001600020704700000000014000040040C7
:100C700000080040000C00400040014070B50446F0
:100C800090F83C00012817D0012584F83C50022040
:100C900084F83D002068826822F0770222F47F42C7
:100CA00082600868502830D00DDC20284DD005DC4B
:100CB00098B310283BD148E0022070BD302844D0C2
:100CC000402834D139E0602828D0702806D0B0F50B
:100CD000805F2CD0B0F5005F29D10AE0CB68D1E964
:100CE0000121206800F03CF92068816841F077011B
:100CF00009E0CB68D1E90121206800F031F92068D2
:100D0000816841F48041816011E0CA6849682068C7
:100D100000F038F95021206807E016E0CA684968F9
:100D2000206800F040F96021206800F023F984F881
:100D30003D50002084F83C0070BDCA6849682068B6
:100D400000F020F940212068EFE7226801461046B4
:100D5000EBE7FEE730B587B014216846FFF770FA7D
:100D600011480024016841F080010160016801F030
:100D700080010591016841F00101016000680B4D9F
:100D800000F00100059022461E212846FFF796FB41
:100D90001E2000900120CDE90104694628460394F5
:100DA000FFF79EFA07B030BD303802400000024025
:100DB00010B586B00024174800940194029403945F
:100DC00004941349059401605321C0E901144FF6BE
:100DD000FE71C0E9031444618461FFF7DBFE08B1D2
:100DE00072B6FEE74FF48050009069460948FFF75D
:100DF00045FF08B172B6FEE7049404A905480594BE
:100E0000FFF78AFE002801D072B6FEE706B010BDDB
:100E10000000014010000020FEE7FEE77047704729
:100E2000FFF758BB30B593B030216846FFF708FA9A
:100E300014210CA8FFF704FA1D480024016841F0B2
:100E400080510160006800F08050119019480168DD
:100E500021F4404141F4004101600068022500F4A2
:100E600040401190012003901020049000950695B9
:100E70000820CDE907405420CDE9090504200B9056
:100E80006846FFF77FFC08B172B6FEE70F20CDE998
:100E90000C054FF48050CDE90E4002210CA81094AF
:100EA000FFF7A4FB002801D072B6FEE713B030BDF7
:100EB00040380240007000400248016841F470016F
:100EC0000160704788ED00E0F0B502681D4B1E4CD4
:100ED0009F031E4D1E4E984207D0B84205D0A04237
:100EE00003D0A84201D0B04204D122F0700C4A686D
:100EF00042EA0C02984210D0B8420ED0A0420CD068
:100F0000A8420AD0B04208D0124CA04205D0124CE0
:100F1000A04202D0114CA04203D122F44074CA680E
:100F200022434C6922F08002224302608A68C26236
:100F30000A688262984201D1096901630121416115
:100F4000F0BD000000000140000400400008004027
:100F5000000C0040004001400044014000480140B6
:100F600010B5846842EA032224F47F440A432243F2
:100F7000826010BD826822F070020A4342F00701CD
:100F80008160704710B5036A046A24F001040462AA
:100F9000846924F0F00444EA021423F00A020A43AC
:100FA0008461026210BD10B5036A23F0100303626E
:100FB0008369046A23F4704343EA023224F0A003F5
:100FC00043EA01118261016210BDFEE70907090EC3
:100FD000002804DB00F1E02080F80014704700F0E6
:100FE0000F0000F1E02080F8141D704702E008C8EF
:100FF000121F08C1002AFAD170477047002001E093
:1010000001C1121F002AFBD17047000004490022D1
:101010000B685A6209684A6A8242FCD37047000032
:1010200010000020FFF75EFAFFF7FCFEFFF792FECC
:10103000FFF7BEFE0B48FFF7EFFD4FF400760025EB
:101040000024204600F010F8032000F06DF8641C26
:10105000082CF6DB6D1CB542F2DB6420FFF72EF99D
:10106000EDE700001000002010B52E4C082857D2E4
:10107000DFE800F0040B181F26323E400122022157
:101080002046FFF71BFA002201E001220BE00421B9
:101090002046FFF713FA002208212046FFF70EFA38
:1010A000002237E0002202212046FFF707FA012242
:1010B000EDE7002202212046FFF700FA012205E0B9
:1010C000002202212046FFF7F9F9002204212046E0
:1010D000FFF7F4F90122DFE7002202212046FFF7A3
:1010E000EDF9002204212046FFF7E8F901220CE087
:1010F000002200E0012202212046FFF7DFF9002252
:1011000004212046FFF7DAF9002208212046FFF7E4
:10111000D5F901222046BDE810401021FFF7CEB9D5
:1011200010BD00000000024043F6381191FBF0F0C2
:1011300080B2FFF76BBF000000000000000001025A
:1011400003040607080900006811000800000020D9
:1011500010000000EC0F00087811000810000020BB
:1011600048040000FC0F000801000000100000000F
:08117000000000000024F4005F
:040000050800019559
:00000001FF
